:020000040000FA
:100000000C9462000C948A000C948A000C948A0070
:100010000C948A000C948A000C948A000C948A0038
:100020000C948A000C948A000C948A000C948A0028
:100030000C948A000C948A000C948A000C948A0018
:100040000C9484050C948A000C948A000C948A0009
:100050000C948A000C948A000C948A000C948A00F8
:100060000C94CE050C948A000000000024002700A8
:100070002A0000000000250028002B0000000000DE
:1000800023002600290004040404040404040202DA
:100090000202020203030303030301020408102007
:1000A0004080010204081020010204081020000012
:1000B0000008000201000003040700000000000027
:1000C0000000ED0611241FBECFEFD8E0DEBFCDBF8C
:1000D00011E0A0E0B1E0E6E5F3E102C005900D9289
:1000E000A439B107D9F722E0A4E9B1E001C01D921B
:1000F000A53FB207E1F710E0C2E6D0E004C02197C7
:10010000FE010E94A309C136D107C9F70E946E07FC
:100110000C94A9090C94000096E0899FD001112449
:10012000AD59BD4F90967C936E935F9791E09196F9
:100130009C939197E091D002F091D1029091CF02DF
:10014000992339F0309751F0811108C080917F02D6
:100150000994309719F05C968C91FACF0895CF925C
:10016000DF92EF92FF920F931F9396E0899FF00129
:100170001124ED59FD4F11A2278D30A121303105F9
:1001800051F178F02230310509F451C023303105A6
:1001900009F452C01F910F91FF90EF90DF90CF9024
:1001A00008956623B9F361E070E00E948C002FB7D8
:1001B000F8948091530290915402A0915502B0910D
:1001C00056022FBF8093BB029093BC02A093BD0246
:1001D000B093BE02DFCF9FB7F894C0905302D09087
:1001E0005402E0905502F09056029FBF0091BB026E
:1001F0001091BC022091BD023091BE02C01AD10AFA
:10020000E20AF30A0091CD021091CE0230E020E024
:100210000C151D052E053F0550F462E070E01F919E
:100220000F91FF90EF90DF90CF900C948C006111B4
:10023000B1CF63E070E0F3CF70E060E0F0CF0895FD
:100240000895AF92BF92CF92DF92EF92FF920F93F9
:100250001F93CF93DF936C017B018B01040F151F5C
:10026000EB015E01AE18BF08C017D10759F06991C4
:10027000D601ED91FC910190F081E02DC601099528
:10028000892B79F7C501DF91CF911F910F91FF90D5
:10029000EF90DF90CF90BF90AF900895833081F0C2
:1002A00028F4813099F08230A9F008958730A9F0C0
:1002B0008830C9F08430B1F4809180008F7D03C014
:1002C000809180008F7780938000089584B58F7728
:1002D00084BD089584B58F7DFBCF8091B0008F776A
:1002E0008093B00008958091B0008F7DF9CFCF93B7
:1002F000DF93282F30E0F901E255FF4F8491F90197
:10030000E656FF4FD491F901EA57FF4FC491CC2331
:10031000A1F081110E944E01EC2FF0E0EE0FFF1FC3
:10032000E458FF4FA591B491EC91ED2381E090E06A
:1003300009F480E0DF91CF91089580E090E0FACF5A
:10034000862F0C9477011F93CF93DF93282F30E0F3
:10035000F901E255FF4F8491F901E656FF4FD49120
:10036000F901EA57FF4FC491CC23A9F0162F811150
:100370000E944E01EC2FF0E0EE0FFF1FEE58FF4FF2
:10038000A591B4918FB7F894EC91111108C0D09554
:10039000DE23DC938FBFDF91CF911F910895DE2B79
:1003A000F8CF862F642F0C94A301CF93DF9390E0B6
:1003B000FC01E656FF4F24918A579F4FFC01849120
:1003C0008823C9F090E0880F991FFC01E859FF4F7E
:1003D000A591B491FC01EE58FF4FC591D4916111E4
:1003E0000DC09FB7F8948C91209582238C938881BF
:1003F000282328839FBFDF91CF910895623051F465
:100400009FB7F8943C91822F809583238C93E88149
:100410002E2BEFCF8FB7F894EC912E2B2C938FBF10
:10042000EACF862F642F0C94D5013FB7F8948091C2
:10043000F9019091FA01A091FB01B091FC0126B560
:10044000A89B05C02F3F19F00196A11DB11D3FBF0C
:10045000BA2FA92F982F8827BC01CD01620F711DDB
:10046000811D911D42E0660F771F881F991F4A95D5
:10047000D1F708958F929F92AF92BF92CF92DF9261
:10048000EF92FF924B015C010E9415026B017C010F
:100490000E9415026C197D098E099F09683E734000
:1004A00081059105A8F321E0821A9108A108B108FD
:1004B00088EEC80E83E0D81EE11CF11C8114910463
:1004C000A104B10429F7FF90EF90DF90CF90BF9087
:1004D000AF909F908F9008952091D501260F3327DC
:1004E000331F21323105ECF420912902FC0190E008
:1004F00080E0243069F082E00895A091D501219137
:10050000AC014B545E4FA40FB52FB11D2C93019637
:10051000861798F38091D501680F6093D50180E02C
:10052000089581E008951092290281E080932802C5
:100530001092030261E082E10E94A30161E083E185
:100540000E94A301E9EBF0E080818E7F80838081AF
:100550008D7F808388E48093B80085E48093BC001D
:100560000895CF93DF9391E09093B4018823B9F07D
:10057000C091B800D091BA008091BC008A7B809372
:10058000BC0060E082E10E94A30160E083E10E9480
:10059000A3010E949302D093BA00C093B800DF91E8
:1005A000CF910895CF92DF92EF92FF920F931F9316
:1005B000CF93DF93D091520281E0D13208F09CC0FA
:1005C000C09151020E9415026B017C0180912902A9
:1005D00081116CC082E08093290281E0809328021F
:1005E0008FEF8093270210922602D0932502A1E379
:1005F000B2E0E5E0F2E080E0D8138DC01092040292
:1006000080910402CC0FC82BC09304028091030296
:10061000813009F084C0109203020E9415026B0120
:100620007C01809104028093BB0080912B02909109
:100630002C02A0912D02B0912E02892B8A2B8B2B9C
:10064000A1F00E94150200912B0210912C02209122
:100650002D0230912E026C197D098E099F09061713
:1006600017072807390708F442C08091BC0083FDB2
:10067000D8CF85EC8093BC000E9415026B017C01F1
:1006800080912902823009F44CC0809127028F3F6B
:1006900009F469C080912702803209F466C0809114
:1006A0002702803309F463C084E026C080912B02C6
:1006B00090912C02A0912D02B0912E02892B8A2BB1
:1006C0008B2B09F483CF0E94150200912B0210910D
:1006D0002C0220912D0230912E026C197D098E0979
:1006E0009F09061717072807390708F06FCF809171
:1006F0002A020E94B10285E010923002109252024A
:1007000010922F02DF91CF911F910F91FF90EF90E8
:10071000DF90CF9008959D9191938F5F6DCF85EE7F
:10072000A9CF80912B0290912C02A0912D02B09123
:100730002E02892B8A2B8B2B09F4A2CF0E94150243
:1007400000912B0210912C0220912D0230912E024B
:100750006C197D098E099F090617170728073907A5
:1007600008F08ECFC4CF80E0C7CF82E0C5CF83E052
:10077000C3CF0895E091020280910102E81730F49E
:10078000F0E0EC56FE4F808190E008958FEF9FEFF0
:10079000089590910202809101022FEF3FEF981788
:1007A00048F4E92FF0E0EC56FE4F208130E09F5FE7
:1007B00090930202C9010895809101029091020272
:1007C000891B990B0895CF92DF92EF92FF920F93BE
:1007D0001F93CF93DF937C01CB018A0120912F02DD
:1007E000222389F0EB016B01C40ED51ECC15DD056B
:1007F00069F06991D701ED91FC910190F081E02DB4
:10080000C7010995F3CF642F0E946C02C801DF91E4
:10081000CF911F910F91FF90EF90DF90CF900895AF
:10082000CF93DF931F92CDB7DEB7698320912F025C
:100830002223F9F020915202203258F021E030E0DA
:10084000FC013383228390E080E00F90DF91CF9111
:10085000089580913002E82FF0E0EF5CFD4F998120
:1008600090838F5F809330028093520281E090E00A
:10087000ECCF61E0CE0101960E946C02F7CFFC0143
:10088000248131E030932F022093510210923002E4
:10089000109252028385682B87E592E00E94100433
:1008A0000C94D202089590E080E0089547E050E073
:1008B0006BE471E087E592E00E94E3030C94D202BE
:1008C000FC0101900020E9F73197AF01481B590B5B
:1008D000BC0189EE92E00C94210185ED8093BC006F
:1008E00080912B0290912C02A0912D02B0912E02AA
:1008F0000796A11DB11D23E0B695A79597958795FD
:100900002A95D1F72091BC0024FD03C01092290242
:10091000089540912B0250912C0260912D0270910C
:100920002E02452B462B472B69F30097A105B105F5
:1009300041F025E32A95F1F700000197A109B109DB
:10094000E1CF80912A020C94B1020F931F93CF93B1
:100950008C01C62F0E943F046C2F6460C8010E9466
:100960003F046C2F6B7FC8010E943F0483EC90E032
:100970000197F1F7CF911F910F9108950F931F9356
:10098000CF93DF938C01D62FC42F607F642B0E94FE
:10099000A50480E1D89FB00111246C2BC801DF9120
:1009A000CF911F910F910C94A504CF93DF93CDB7F6
:1009B000DEB728970FB6F894DEBF0FBECDBF98E024
:1009C000E4E1F1E0DE01119601900D929A95E1F7D4
:1009D0009091F102961708F46FEF262F30E0220F66
:1009E000331F41E050E04C0F5D1F240F351FF9010C
:1009F0006081680F606840E089EE92E028960FB64B
:100A0000F894DEBF0FBECDBFDF91CF910C94BE0432
:100A100040E061E089EE92E00E94BE048BE39FE13A
:100A20000197F1F7089541E00E94BE0481E090E053
:100A3000089520918202309183022130310509F01E
:100A400062C0833209F44BC08A3209F04BC08091F6
:100A5000D2029091D302FC0131912091D402A5EDF4
:100A6000B2E04496311114C0211119C00E9408054A
:100A700060E082E00E94D50483E591E00E9460047A
:100A800061E086E00E94D50480E691E00C94600469
:100A9000321305C031912D918E179F0719F70E94CF
:100AA000080560E083E00E94D50485E691E00E949D
:100AB000600461E082E00E94D5048FE691E00E942C
:100AC000600461E089EE92E00E9413058EE591E0FA
:100AD0000E9460041092E8021092D40208950E94CD
:100AE0005604F8CFE091E802E33169F091E09E0FFF
:100AF0009093E802F0E0EE52FD4F8283E92FF0E0A0
:100B0000EE52FD4F128208951F920F920FB60F9270
:100B100011242F933F938F939F93AF93BF93809113
:100B2000530290915402A0915502B0915602309117
:100B3000F80123E0230F2D3758F50196A11DB11DB3
:100B40002093F8018093530290935402A09355028E
:100B5000B09356028091F9019091FA01A091FB01A6
:100B6000B091FC010196A11DB11D8093F9019093F4
:100B7000FA01A093FB01B093FC01BF91AF919F914B
:100B80008F913F912F910F900FBE0F901F9018954E
:100B900026E8230F0296A11DB11DD2CF1F920F92FE
:100BA0000FB60F9211242F933F934F935F936F9340
:100BB0007F938F939F93AF93BF93EF93FF93809116
:100BC000B900887F803609F44AC0F0F5883209F40C
:100BD000A7C018F5803109F49BC0B8F4882309F444
:100BE000F9C0883009F494C0FF91EF91BF91AF91A3
:100BF0009F918F917F916F915F914F913F912F9135
:100C00000F900FBE0F901F901895883109F488C07F
:100C1000803251F78093270214C0803409F49DC0BC
:100C200040F48033B9F38833F9F68093270285ECDA
:100C3000B0C0803509F485C0883509F496C0883481
:100C400099F60E946D04D0CF883909F48CC038F52C
:100C5000883729F050F4883611F0803729F683E080
:100C6000809329021092F70157C0883809F47BC09D
:100C7000803919F0803809F0B7CF8091F7018032C0
:100C800008F071C0E091F70181E08E0F8093F701C9
:100C90008091BB00F0E0E952FE4F80833DC0803B75
:100CA00039F0E0F4803A09F479C0883A09F09CCF31
:100CB00084E0809329021092D6011092D501E09130
:100CC000FF01F091000209958091D50181110FC0BB
:100CD00081E08093D5011092B50109C0803C09F4F0
:100CE000A6CF883C09F4A3CF883B09F07DCFE091E3
:100CF000D60181E08E0F8093D601F0E0EB54FE4FD9
:100D000080818093BB009091D6018091D50129C04C
:100D1000809104028093BB0085EC8093BC0064CF7B
:100D20009091260280912502981758F5E0912602AD
:100D300081E08E0F80932602F0E0EB5FFD4F808113
:100D4000E9CFE091260281E08E0F80932602809108
:100D5000BB00F0E0EB5FFD4F808390912602809115
:100D600025029817C8F285E8D8CFE091260281E0E5
:100D70008E0F809326028091BB00F0E0EB5FFD4F69
:100D800080838091280281115CCF81E080930302EF
:100D900084EA8093BC001092290226CF85EC8093D0
:100DA000BC00109229028091F701803230F4E0916A
:100DB000F701F0E0E952FE4F10826091F70170E018
:100DC000E091FD01F091FE0187ED91E0099510920F
:100DD000F7010ACF1092270234CF10925A021092D4
:100DE000590288EE93E0A0E0B0E080935B0290931C
:100DF0005C02A0935D02B0935E0280E291E090936A
:100E00005802809357021092EC021092EB028CE38E
:100E100091E09093EA028093E90280E28093ED02F0
:100E200082E18093F20282E08093F3021092F40256
:100E300088E791E09093D3028093D2021092E80267
:100E40001092D40210926502109269021092680208
:100E500010926A0282E391E09093640280936302AD
:100E6000EFE7F2E01082148213821582369682E058
:100E7000EB3BF807B9F787E491E09093C6028093C3
:100E8000C50284E491E09093C8028093C70284E095
:100E90008093C90283E08093CA0288E091E0909336
:100EA000C4028093C3028AE090E09093CC028093C6
:100EB000CB0284EF91E09093CE028093CD0210920A
:100EC000D1021092D0021092BF021092C002109272
:100ED000C1021092C2021092CF020895789484B594
:100EE000826084BD84B5816084BD85B5826085BD26
:100EF00085B5816085BD80916E00816080936E00B4
:100F000010928100809181008260809381008091A5
:100F10008100816080938100809180008160809356
:100F200080008091B10084608093B1008091B00016
:100F300081608093B00080917A00846080937A0011
:100F400080917A00826080937A0080917A0081603B
:100F500080937A0080917A00806880937A00109262
:100F6000C1001092020210920102109230021092FF
:100F700052020E9493028FE191E0909300028093CD
:100F8000FF0180E291E09093FE018093FD011092B9
:100F9000EE028091F302823018F098E09093EE0216
:100FA0008093F10262E370E080E090E00E943A02F8
:100FB0006091F40289EE92E00E943F0468EE73E0D3
:100FC00080E090E00E943A0260E389EE92E00E94A5
:100FD000A504CBE4D6E4CE010197F1F760E389EEF6
:100FE00092E00E94A5042197F1F760E389EE92E078
:100FF0000E94A50483E592E00197F1F760E289EE93
:1010000092E00E94A5046091EE02606240E089EEE9
:1010100092E00E94BE0484E08093EF0240E06CE026
:1010200089EE92E00E94BE040E94080582E080934F
:10103000F00240E066E089EE92E00E94BE0440E0EB
:1010400062E089EE92E00E94BE048BE39FE101978B
:10105000F1F781E080932F028AE080935102109291
:101060003002109252020E94560440E068E489EE79
:1010700092E00E94BE04C0E0D1E008E011E0699176
:1010800089EE92E00E9413050C171D07C1F789E154
:1010900095E09093D1028093D00260E083E00E94BB
:1010A000D5048FE791E00E94600461E084E00E9433
:1010B000D5048AE891E00E946004812C912C5401AF
:1010C000839444244A94542C50E0652E50E0752EAD
:1010D00051E05093CF028FB7F89440915302509152
:1010E000540260915502709156028FBF8091BF02E9
:1010F0009091C002A091C102B091C202481B590B4D
:101100006A0B7B0B8091CB029091CC02B0E0A0E007
:10111000C0E084179507A607B70740F01092CF02EA
:1011200061147104A9F20E940000D2CF8091C9021B
:10113000C81760F4E091C502F091C602EC0FF11DF2
:1011400062E080810E94D501CF5FF0CF312C809189
:10115000CA02381608F05FC0032D10E0E091C70204
:10116000F091C802E00FF11F61E080810E94D5017B
:10117000E091C702F091C802E00FF11F60E08081AA
:101180000E94A301D501C401032C04C0880F991F3C
:10119000AA1FBB1F0A94D2F76C017C01E094F09463
:1011A000212C8091C9022816F8F4C22DD0E0E091DC
:1011B000C502F091C602EC0FFD1F80810E947701ED
:1011C0002496CC0FDD1FCD59DD4F892B41F488814A
:1011D00099818C299D29998388832394E2CF8881E2
:1011E00099818E219F21F7CFE091C702F091C8022B
:1011F000E00FF11F61E080810E94A3018091C7028E
:101200009091C802080F191F60E0F80180810E94C8
:10121000D50133949CCF03E612E0E8018F8D98A1AD
:10122000892B21F41C8E5E8E4D8E19A22696F2E03B
:10123000CF39DF0799F7D12C8091C902D81608F071
:1012400053C0C12CED2CF12CEE0CFF1CC7018559AD
:101250009D4F7C012091CA02C21608F043C0F701DD
:10126000608171810C2C02C0769567950A94E2F733
:10127000D29E900111242C0D311DE3E6F2E080E0B6
:10128000458D568D2417350709F45BC08F5F369660
:101290008A30B1F760FF24C0E3E6F2E090E080E03E
:1012A000448D411118C0E091C302F091C402E20FD5
:1012B000F31F408156E0589FF001599FF00D112413
:1012C000ED59FD4F448F368F258F10A2178E61E0A8
:1012D0000E94AF0005C0019636968A30910501F74D
:1012E000C394B8CFD394A8CF80E0F80191A1911115
:1012F000892F0A5F1F4FC017D107B9F79FB7F8941E
:1013000040915302509154026091550270915602DF
:101310009FBF4093BF025093C0026093C10270937D
:10132000C202882309F4FACE80918402882309F44A
:10133000F5CE8091820290918302019709F0EECE62
:10134000EFCE6170C5CFEE0FFF1F0590F491E02D39
:101350000994F894FFCF0F001919151513133132A2
:10136000333435363738392A302300004000140032
:101370005400000000001004E3035304B903DC032D
:10138000C903BA03000000001102D101A00100004E
:10139000000013052101530452040D0C0B0A090827
:1013A000074150414741444F004249454E56454E42
:1013B00049444F20410043415341004552524F524E
:1013C00020454E2000434F4E545241534500323089
:1013D00032313133004341534120414359453100BB
:0A13E000412D4731332D5332000038
:107E0000112484B714BE81FFF0D085E080938100F7
:107E100082E08093C00088E18093C10086E0809377
:107E2000C20080E18093C4008EE0C9D0259A86E02C
:107E300020E33CEF91E0309385002093840096BBD3
:107E4000B09BFECF1D9AA8958150A9F7CC24DD24C4
:107E500088248394B5E0AB2EA1E19A2EF3E0BF2EE7
:107E6000A2D0813461F49FD0082FAFD0023811F036
:107E7000013811F484E001C083E08DD089C08234E0
:107E800011F484E103C0853419F485E0A6D080C0E4
:107E9000853579F488D0E82EFF2485D0082F10E0AE
:107EA000102F00270E291F29000F111F8ED06801E7
:107EB0006FC0863521F484E090D080E0DECF843638
:107EC00009F040C070D06FD0082F6DD080E0C81688
:107ED00080E7D80618F4F601B7BEE895C0E0D1E017
:107EE00062D089930C17E1F7F0E0CF16F0E7DF06D8
:107EF00018F0F601B7BEE89568D007B600FCFDCFD4
:107F0000A601A0E0B1E02C9130E011968C91119780
:107F100090E0982F8827822B932B1296FA010C0160
:107F200087BEE89511244E5F5F4FF1E0A038BF0790
:107F300051F7F601A7BEE89507B600FCFDCF97BE46
:107F4000E89526C08437B1F42ED02DD0F82E2BD052
:107F50003CD0F601EF2C8F010F5F1F4F84911BD097
:107F6000EA94F801C1F70894C11CD11CFA94CF0C13
:107F7000D11C0EC0853739F428D08EE10CD085E9AC
:107F80000AD08FE07ACF813511F488E018D01DD067
:107F900080E101D065CF982F8091C00085FFFCCF94
:107FA0009093C60008958091C00087FFFCCF809118
:107FB000C00084FD01C0A8958091C6000895E0E648
:107FC000F0E098E1908380830895EDDF803219F02E
:107FD00088E0F5DFFFCF84E1DECF1F93182FE3DFCA
:107FE0001150E9F7F2DF1F91089580E0E8DFEE27F6
:047FF000FF270994CA
:027FFE00040479
:00000001FF
