:020000040000FA
:100000000C9462000C948A000C948A000C948A0070
:100010000C948A000C948A000C948A000C948A0038
:100020000C948A000C948A000C948A000C948A0028
:100030000C948A000C948A000C948A000C948A0018
:100040000C9496050C948A000C948A000C948A00F7
:100050000C948A000C948A000C948A000C948A00F8
:100060000C94E0050C948A00000000002400270096
:100070002A0000000000250028002B0000000000DE
:1000800023002600290004040404040404040202DA
:100090000202020203030303030301020408102007
:1000A0004080010204081020010204081020000012
:1000B0000008000201000003040700000000000027
:1000C0000000FF0611241FBECFEFD8E0DEBFCDBF7A
:1000D00011E0A0E0B1E0E0E6F2E102C005900D928F
:1000E000A036B107D9F722E0A0E6B1E001C01D9229
:1000F000AD3CB207E1F710E0C2E6D0E004C02197C2
:10010000FE010E942809C136D107C9F70E94920753
:100110000C942E090C94000096E0899FD0011124C4
:10012000A15DBD4F90967C936E935F9791E0919601
:100130009C939197E0919C02F0919D0290919B027B
:10014000992339F0309751F0811108C080914B020A
:100150000994309719F05C968C91FACF0895CF925C
:10016000DF92EF92FF920F931F9396E0899FF00129
:100170001124E15DFD4F11A2278D30A12130310501
:1001800051F178F02230310509F451C023303105A6
:1001900009F452C01F910F91FF90EF90DF90CF9024
:1001A00008956623B9F361E070E00E948C002FB7D8
:1001B000F89480911F0290912002A0912102B091A9
:1001C00022022FBF8093870290938802A093890216
:1001D000B0938A02DFCF9FB7F894C0901F02D090EF
:1001E0002002E0902102F09022029FBF009187023E
:1001F000109188022091890230918A02C01AD10A96
:10020000E20AF30A0091990210919A0230E020E08C
:100210000C151D052E053F0550F462E070E01F919E
:100220000F91FF90EF90DF90CF900C948C006111B4
:10023000B1CF63E070E0F3CF70E060E0F0CFAF9259
:10024000BF92CF92DF92EF92FF920F931F93CF93C3
:10025000DF936C017B018B01040F151FEB015E0125
:10026000AE18BF08C017D10759F06991D601ED91BA
:10027000FC910190F081E02DC6010995892B79F759
:10028000C501DF91CF911F910F91FF90EF90DF900B
:10029000CF90BF90AF900895833081F028F48130E3
:1002A00099F08230A9F008958730A9F08830C9F01C
:1002B0008430B1F4809180008F7D03C080918000F4
:1002C0008F7780938000089584B58F7784BD0895DB
:1002D00084B58F7DFBCF8091B0008F778093B00085
:1002E00008958091B0008F7DF9CFCF93DF93282FB1
:1002F00030E0F901E255FF4F8491F901E656FF4FD6
:10030000D491F901EA57FF4FC491CC23A1F0811198
:100310000E944C01EC2FF0E0EE0FFF1FE458FF4F5E
:10032000A591B491EC91ED2381E090E009F480E097
:10033000DF91CF91089580E090E0FACF862F0C9462
:1003400075011F93CF93DF93282F30E0F901E25519
:10035000FF4F8491F901E656FF4FD491F901EA5716
:10036000FF4FC491CC23A9F0162F81110E944C019C
:10037000EC2FF0E0EE0FFF1FEE58FF4FA591B49168
:100380008FB7F894EC91111108C0D095DE23DC935F
:100390008FBFDF91CF911F910895DE2BF8CF862F6D
:1003A000642F0C94A101CF93DF9390E0FC01E656FB
:1003B000FF4F24918A579F4FFC0184918823C9F0F5
:1003C00090E0880F991FFC01E859FF4FA591B49167
:1003D000FC01EE58FF4FC591D49161110DC09FB73C
:1003E000F8948C91209582238C93888128232883EC
:1003F0009FBFDF91CF910895623051F49FB7F89479
:100400003C91822F809583238C93E8812E2BEFCF14
:100410008FB7F894EC912E2B2C938FBFEACF862FB9
:10042000642F0C94D3013FB7F89480911B029091F4
:100430001C02A0911D02B0911E0226B5A89B05C00A
:100440002F3F19F00196A11DB11D3FBFBA2FA92F53
:10045000982F8827BC01CD01620F711D811D911D50
:1004600042E0660F771F881F991F4A95D1F70895BC
:100470008F929F92AF92BF92CF92DF92EF92FF92B4
:100480004B015C010E9413026B017C010E9413026C
:100490006C197D098E099F09683E7340810591059D
:1004A000A8F321E0821A9108A108B10888EEC80ECD
:1004B00083E0D81EE11CF11C81149104A104B10455
:1004C00029F7FF90EF90DF90CF90BF90AF909F9073
:1004D0008F9008952091CE01260F3327331F2132AC
:1004E0003105ECF42091F401FC0190E080E024302F
:1004F00069F082E00895A091CE012191AC014455AC
:100500005E4FA40FB52FB11D2C930196861798F35B
:100510008091CE01680F6093CE0180E0089581E064
:1005200008951092F40181E08093F6011092F50194
:1005300061E082E10E94A10161E083E10E94A101EA
:10054000E9EBF0E080818E7F808380818D7F8083E6
:1005500088E48093B80085E48093BC000895CF932D
:10056000DF9391E09093AB018823B9F0C091B8007C
:10057000D091BA008091BC008A7B8093BC0060E07F
:1005800082E10E94A10160E083E10E94A1010E943A
:100590009102D093BA00C093B800DF91CF91089533
:1005A000089508950895E091A3018091A201E817AC
:1005B00030F4F0E0EE57FE4F808190E008958FEF29
:1005C0009FEF08959091A3018091A2012FEF3FEF3B
:1005D000981748F4E92FF0E0EE57FE4F208130E005
:1005E0009F5F9093A301C90108958091A20190910A
:1005F000A301891B990B0895CF92DF92EF92FF928E
:100600000F931F93CF93DF937C01CB018A0120913D
:100610008101222389F0EB016B01C40ED51ECC159C
:10062000DD0569F06991D701ED91FC910190F081B0
:10063000E02DC7010995F3CF642F0E946A02C8011B
:10064000DF91CF911F910F91FF90EF90DF90CF90AE
:100650000895CF93DF931F92CDB7DEB769832091C2
:1006600081012223F9F02091A401203258F021E0E9
:1006700030E0FC013383228390E080E00F90DF9133
:10068000CF9108958091A501E82FF0E0EF59FE4F3A
:10069000998190838F5F8093A5018093A40181E06D
:1006A00090E0ECCF61E0CE0101960E946A02F7CFA4
:1006B000CF92DF92EF92FF920F931F93CF93DF932E
:1006C000FC01C48121E020938101C093600110925C
:1006D000A5011092A4018385682B83E292E00E9419
:1006E0002903D091A401D13208F092C00E941302D4
:1006F0006B017C018091F401811165C082E08093DF
:10070000F40181E08093F6018FEF8093F301109262
:100710001802D0931702A1E6B1E0E7EFF1E080E024
:10072000D81385C01092190280911902CC0FC82BE2
:10073000C09319028091F501813009F07CC01092BC
:10074000F5010E9413026B017C01809119028093D4
:10075000BB008091A7019091A801A091A901B0913F
:10076000AA01892B8A2B8B2B99F00E9413020091EE
:10077000A7011091A8012091A9013091AA016C193B
:100780007D098E099F090617170728073907E0F129
:100790008091BC0083FDD9CF85EC8093BC000E9482
:1007A00013026B017C018091F401823009F445C091
:1007B0008091F3018F3F61F18091F301803241F12B
:1007C0008091F30125C08091A7019091A801A0918B
:1007D000A901B091AA01892B8A2B8B2B09F48ACF0E
:1007E0000E9413020091A7011091A8012091A90174
:1007F0003091AA016C197D098E099F090617170708
:100800002807390708F076CF8091A6010E94AF0231
:100810001092A5011092A40110928101DF91CF9155
:100820001F910F91FF90EF90DF90CF9008959D91D1
:1008300091938F5F75CF85EEB0CF8091A701909196
:10084000A801A091A901B091AA01892B8A2B8B2B19
:1008500009F4A9CF0E9413020091A7011091A801E9
:100860002091A9013091AA016C197D098E099F0977
:10087000061717072807390708F095CFC5CF089541
:1008800090E080E0089585ED8093BC008091A70101
:100890009091A801A091A901B091AA010796A11D6C
:1008A000B11D23E0B695A795979587952A95D1F721
:1008B0002091BC0024FD03C01092F40108954091E2
:1008C000A7015091A8016091A9017091AA01452B3F
:1008D000462B472B69F30097A105B10541F025E3AD
:1008E0002A95F1F700000197A109B109E1CF8091A4
:1008F000A6010C94AF020F931F93CF938C01C62FC8
:100900000E9458036C2F6460C8010E9458036C2F2A
:100910006B7FC8010E94580383EC90E00197F1F7C8
:10092000CF911F910F9108950F931F93CF93DF9352
:100930008C01D62FC42F607F642B0E947B0480E142
:10094000D89FB00111246C2BC801DF91CF911F916A
:100950000F910C947B0440E061E00E9494048BE3CF
:100960009FE10197F1F7089541E00E94940481E02E
:1009700090E008950F931F93CF93DF93EC011092B3
:10098000A3011092A2011092A5011092A4010E944D
:10099000910280ED92E09093CD018093CC0181EDA6
:1009A00092E09093D1018093D0011D828A8582309C
:1009B00010F098E09D83888762E370E080E090E02B
:1009C0000E9438026B85CE010E94580368EE73E0E6
:1009D00080E090E00E94380260E3CE010E947B0438
:1009E0000BE416E4C8010197F1F760E3CE010E9421
:1009F0007B04C8010197F1F760E3CE010E947B04FC
:100A000083E592E00197F1F760E2CE010E947B045A
:100A10006D81606240E0CE010E94940484E08E8388
:100A200040E06CE0CE010E949404CE010E94AB0431
:100A300082E08F8340E066E0CE010E94940440E0B3
:100A400062E0CE010E9494048BE39FE10197F1F7ED
:100A5000DF91CF911F910F910895CF9320914E0276
:100A600030914F022130310509F043C0C82F41E0D9
:100A7000682F81EC92E00E949404C332E1F1CA3203
:100A800009F042C080919E0290919F02FC01319139
:100A90002091A002A1EAB2E0449631110FC02111C9
:100AA00014C085EB92E00E94AB044AE050E06BE397
:100AB00071E085EB92E0CF910C941F01231305C0E8
:100AC00031912D918E179F0741F781EC92E00E94A2
:100AD000AB0485EB92E00E94AB044AE050E066E490
:100AE00071E085EB92E00E941F011092B402109217
:100AF000A002CF91089585EB92E00E94AB0447E0FD
:100B000050E061E571E0EDCFE091B402E33189F3AB
:100B100091E09E0F9093B402F0E0E256FD4FC28345
:100B2000E92FF0E0E256FD4F1282E3CF1F920F92C1
:100B30000FB60F9211242F933F938F939F93AF93F0
:100B4000BF9380911F0290912002A0912102B09149
:100B5000220230911A0223E0230F2D3758F5019617
:100B6000A11DB11D20931A0280931F0290932002B1
:100B7000A0932102B093220280911B0290911C024B
:100B8000A0911D02B0911E020196A11DB11D80937E
:100B90001B0290931C02A0931D02B0931E02BF91F2
:100BA000AF919F918F913F912F910F900FBE0F901A
:100BB0001F90189526E8230F0296A11DB11DD2CFD4
:100BC0001F920F920FB60F9211242F933F934F93C2
:100BD0005F936F937F938F939F93AF93BF93EF93A5
:100BE000FF938091B900887F803609F44AC0F0F500
:100BF000883209F4A7C018F5803109F49BC0B8F415
:100C0000882309F4F9C0883009F494C0FF91EF916A
:100C1000BF91AF919F918F917F916F915F914F9114
:100C20003F912F910F900FBE0F901F901895883114
:100C300009F488C0803251F78093F30114C08034E6
:100C400009F49DC040F48033B9F38833F9F68093FA
:100C5000F30185ECB0C0803509F485C0883509F40E
:100C600096C0883499F60E944304D0CF883909F49D
:100C70008CC038F5883729F050F4883611F0803769
:100C800029F683E08093F4011092F20157C088386E
:100C900009F47BC0803919F0803809F0B7CF809112
:100CA000F201803208F071C0E091F20181E08E0F14
:100CB0008093F2018091BB00F0E0EE52FE4F808302
:100CC0003DC0803B39F0E0F4803A09F479C0883ABD
:100CD00009F09CCF84E08093F4011092CF01109230
:100CE000CE01E091CC01F091CD0109958091CE012A
:100CF00081110FC081E08093CE011092AC0109C038
:100D0000803C09F4A6CF883C09F4A3CF883B09F0C6
:100D10007DCFE091CF0181E08E0F8093CF01F0E095
:100D2000E455FE4F80818093BB009091CF0180916C
:100D3000CE0129C0809119028093BB0085EC80937D
:100D4000BC0064CF9091180280911702981758F553
:100D5000E091180281E08E0F80931802F0E0E950D4
:100D6000FE4F8081E9CFE091180281E08E0F8093E1
:100D700018028091BB00F0E0E950FE4F8083909113
:100D80001802809117029817C8F285E8D8CFE09131
:100D9000180281E08E0F809318028091BB00F0E072
:100DA000E950FE4F80838091F60181115CCF81E094
:100DB0008093F50184EA8093BC001092F40126CF61
:100DC00085EC8093BC001092F4018091F201803296
:100DD00030F4E091F201F0E0EE52FE4F10826091AB
:100DE000F20170E0E091D001F091D10182ED91E04B
:100DF00009951092F2010ACF1092F30134CF1092AC
:100E000026021092250288EE93E0A0E0B0E08093E5
:100E1000270290932802A0932902B0932A0280E12E
:100E200091E090932402809323021092C4021092C6
:100E3000C3022CE231E03093C2022093C10280E26F
:100E40008093C50282E18093CA0282E08093CB0244
:100E50001092CC021092B8021092B7023093B602F0
:100E60002093B50297E29093B90290E19093BE026D
:100E70008093BF021092C00289E591E090939F0297
:100E800080939E021092B4021092A002109231023E
:100E900010923502109234021092360282E291E0F2
:100EA0009093300280932F02EBE4F2E010821482E0
:100EB00013821582369682E0E738F807B9F787E3A0
:100EC00091E0909392028093910284E391E0909359
:100ED00094028093930284E08093950283E0809350
:100EE000960280E091E09093900280938F028AE0D6
:100EF00090E0909398028093970284EF91E0909312
:100F00009A028093990210929D0210929C02109274
:100F10008B0210928C0210928D0210928E0210920F
:100F20009B020895789484B5826084BD84B5816005
:100F300084BD85B5826085BD85B5816085BD8091A4
:100F40006E00816080936E0010928100809181001C
:100F50008260809381008091810081608093810014
:100F6000809180008160809380008091B1008460D6
:100F70008093B1008091B00081608093B000809137
:100F80007A00846080937A0080917A0082608093F6
:100F90007A0080917A00816080937A0080917A0053
:100FA000806880937A001092C10081EC92E00E94E8
:100FB000BA0485EB92E00E94BA048DE295E090932A
:100FC0009D0280939C02812C912C540183942224B5
:100FD0002A94322C50E0652E50E0752E51E050934B
:100FE0009B028FB7F89440911F02509120026091AC
:100FF0002102709122028FBF80918B0290918C020E
:10100000A0918D02B0918E02481B590B6A0B7B0B8D
:101010008091970290919802B0E0A0E0C0E0841720
:101020009507A607B70740F010929B026114710460
:10103000A9F20E940000D2CF80919502C81760F4F7
:10104000E0919102F0919202EC0FF11D62E080813B
:101050000E94D301CF5FF0CF512C80919602581699
:1010600008F05FC0052D10E0E0919302F09194022A
:10107000E00FF11F61E080810E94D301E0919302B3
:10108000F0919402E00FF11F60E080810E94A101C5
:10109000D501C401052C04C0880F991FAA1FBB1FCE
:1010A0000A94D2F76C017C01E094F094412C809179
:1010B00095024816F8F4C42DD0E0E0919102F09129
:1010C0009202EC0FFD1F80810E9475012496CC0FC7
:1010D000DD1FC15DDD4F892B41F4888199818C2909
:1010E0009D29998388834394E2CF888199818E21B9
:1010F0009F21F7CFE0919302F0919402E00FF11F4E
:1011000061E080810E94A1018091930290919402FC
:10111000080F191F60E0F80180810E94D3015394E9
:101120009CCFCFE2D2E0FE01878D90A1892B21F4E4
:10113000148E368E258E11A2369652E0EB36F507C8
:1011400099F710E080919502181708F053C000E05D
:10115000E12EF12CEE0CFF1CC701895C9D4F7C0138
:1011600020919602021708F043C0F7016081718157
:10117000002E02C0769567950A94E2F7129F9001BF
:101180001124200F311DEFE2F2E080E0458D568DF5
:101190002417350709F45AC08F5F36968A30B1F7A5
:1011A00060FF24C0EFE2F2E090E080E0448D411166
:1011B00018C0E0918F02F0919002E20FF31F40817E
:1011C00056E0589FF001599FF00D1124E15DFD4F4D
:1011D000448F368F258F10A2178E61E00E94AF00DA
:1011E00005C0019636968A30910501F70F5FB8CF9A
:1011F0001F5FA8CF80E099A19111892F269692E0D8
:10120000CB36D907C1F79FB7F89440911F02509190
:10121000200260912102709122029FBF40938B02B5
:1012200050938C0260938D0270938E02882309F490
:10123000FBCE80915002882309F4F6CE80914E02B5
:1012400090914F02019709F0EFCEF0CE6170C6CFBA
:10125000EE0FFF1F0590F491E02D0994F894FFCF55
:101260003132333435363738392A30230000000024
:101270002903FC024004D202F502E202D30200007C
:1012800000000F02CF019E0100000000B4041F0106
:1012900040043F040D0C0B0A0908074249454E560D
:1012A000454E49444F00494E434F52524543544FD7
:1012B000004150414741444F003230323131330018
:107E0000112484B714BE81FFF0D085E080938100F7
:107E100082E08093C00088E18093C10086E0809377
:107E2000C20080E18093C4008EE0C9D0259A86E02C
:107E300020E33CEF91E0309385002093840096BBD3
:107E4000B09BFECF1D9AA8958150A9F7CC24DD24C4
:107E500088248394B5E0AB2EA1E19A2EF3E0BF2EE7
:107E6000A2D0813461F49FD0082FAFD0023811F036
:107E7000013811F484E001C083E08DD089C08234E0
:107E800011F484E103C0853419F485E0A6D080C0E4
:107E9000853579F488D0E82EFF2485D0082F10E0AE
:107EA000102F00270E291F29000F111F8ED06801E7
:107EB0006FC0863521F484E090D080E0DECF843638
:107EC00009F040C070D06FD0082F6DD080E0C81688
:107ED00080E7D80618F4F601B7BEE895C0E0D1E017
:107EE00062D089930C17E1F7F0E0CF16F0E7DF06D8
:107EF00018F0F601B7BEE89568D007B600FCFDCFD4
:107F0000A601A0E0B1E02C9130E011968C91119780
:107F100090E0982F8827822B932B1296FA010C0160
:107F200087BEE89511244E5F5F4FF1E0A038BF0790
:107F300051F7F601A7BEE89507B600FCFDCF97BE46
:107F4000E89526C08437B1F42ED02DD0F82E2BD052
:107F50003CD0F601EF2C8F010F5F1F4F84911BD097
:107F6000EA94F801C1F70894C11CD11CFA94CF0C13
:107F7000D11C0EC0853739F428D08EE10CD085E9AC
:107F80000AD08FE07ACF813511F488E018D01DD067
:107F900080E101D065CF982F8091C00085FFFCCF94
:107FA0009093C60008958091C00087FFFCCF809118
:107FB000C00084FD01C0A8958091C6000895E0E648
:107FC000F0E098E1908380830895EDDF803219F02E
:107FD00088E0F5DFFFCF84E1DECF1F93182FE3DFCA
:107FE0001150E9F7F2DF1F91089580E0E8DFEE27F6
:047FF000FF270994CA
:027FFE00040479
:00000001FF
