:020000040000FA
:100000000C9462000C948A000C948A000C948A0070
:100010000C948A000C948A000C948A000C948A0038
:100020000C948A000C948A000C948A000C948A0028
:100030000C948A000C948A000C948A000C948A0018
:100040000C94B9060C948A000C948A000C948A00D3
:100050000C948A000C948A000C948A000C948A00F8
:100060000C9403070C948A00000000002400270071
:100070002A0000000000250028002B0000000000DE
:1000800023002600290004040404040404040202DA
:100090000202020203030303030301020408102007
:1000A0004080010204081020010204081020000012
:1000B0000008000201000003040700000000000027
:1000C0000000220811241FBECFEFD8E0DEBFCDBF55
:1000D00011E0A0E0B1E0EEE8F5E102C005900D927C
:1000E000A438B107D9F722E0A4E8B1E001C01D921D
:1000F000A73EB207E1F710E0C2E6D0E004C02197C6
:10010000FE010E94BF0AC136D107C9F70E94A308A9
:100110000C94C50A0C94000096E0899FD00111242C
:10012000AB5ABD4F90967C936E935F9791E09196FA
:100130009C939197E091C202F091C3029091C10209
:10014000992339F0309751F0811108C080917102E4
:100150000994309719F05C968C91FACF0895CF925C
:10016000DF92EF92FF920F931F9396E0899FF00129
:100170001124EB5AFD4F11A2278D30A121303105FA
:1001800051F178F02230310509F451C023303105A6
:1001900009F452C01F910F91FF90EF90DF90CF9024
:1001A00008956623B9F361E070E00E948C002FB7D8
:1001B000F8948091450290914602A0914702B09137
:1001C00048022FBF8093AD029093AE02A093AF027E
:1001D000B093B002DFCF9FB7F894C0904502D090A3
:1001E0004602E0904702F09048029FBF0091AD02A6
:1001F0001091AE022091AF023091B002C01AD10A24
:10020000E20AF30A0091BF021091C00230E020E040
:100210000C151D052E053F0550F462E070E01F919E
:100220000F91FF90EF90DF90CF900C948C006111B4
:10023000B1CF63E070E0F3CF70E060E0F0CF0895FD
:100240000895AF92BF92CF92DF92EF92FF920F93F9
:100250001F93CF93DF936C017B018B01040F151F5C
:10026000EB015E01AE18BF08C017D10759F06991C4
:10027000D601ED91FC910190F081E02DC601099528
:10028000892B79F7C501DF91CF911F910F91FF90D5
:10029000EF90DF90CF90BF90AF900895833081F0C2
:1002A00028F4813099F08230A9F008958730A9F0C0
:1002B0008830C9F08430B1F4809180008F7D03C014
:1002C000809180008F7780938000089584B58F7728
:1002D00084BD089584B58F7DFBCF8091B0008F776A
:1002E0008093B00008958091B0008F7DF9CFCF93B7
:1002F000DF93282F30E0F901E255FF4F8491F90197
:10030000E656FF4FD491F901EA57FF4FC491CC2331
:10031000A1F081110E944E01EC2FF0E0EE0FFF1FC3
:10032000E458FF4FA591B491EC91ED2381E090E06A
:1003300009F480E0DF91CF91089580E090E0FACF5A
:10034000862F0C9477011F93CF93DF93282F30E0F3
:10035000F901E255FF4F8491F901E656FF4FD49120
:10036000F901EA57FF4FC491CC23A9F0162F811150
:100370000E944E01EC2FF0E0EE0FFF1FEE58FF4FF2
:10038000A591B4918FB7F894EC91111108C0D09554
:10039000DE23DC938FBFDF91CF911F910895DE2B79
:1003A000F8CF862F642F0C94A301CF93DF9390E0B6
:1003B000FC01E656FF4F24918A579F4FFC01849120
:1003C0008823C9F090E0880F991FFC01E859FF4F7E
:1003D000A591B491FC01EE58FF4FC591D4916111E4
:1003E0000DC09FB7F8948C91209582238C938881BF
:1003F000282328839FBFDF91CF910895623051F465
:100400009FB7F8943C91822F809583238C93E88149
:100410002E2BEFCF8FB7F894EC912E2B2C938FBF10
:10042000EACF862F642F0C94D5013FB7F8948091C2
:10043000EB019091EC01A091ED01B091EE0126B598
:10044000A89B05C02F3F19F00196A11DB11D3FBF0C
:10045000BA2FA92F982F8827BC01CD01620F711DDB
:10046000811D911D42E0660F771F881F991F4A95D5
:10047000D1F708958F929F92AF92BF92CF92DF9261
:10048000EF92FF924B015C010E9415026B017C010F
:100490000E9415026C197D098E099F09683E734000
:1004A00081059105A8F321E0821A9108A108B108FD
:1004B00088EEC80E83E0D81EE11CF11C8114910463
:1004C000A104B10429F7FF90EF90DF90CF90BF9087
:1004D000AF909F908F9008952091C701260F3327EA
:1004E000331F21323105ECF420911B02FC0190E016
:1004F00080E0243069F082E00895A091C701219145
:10050000AC0149555E4FA40FB52FB11D2C93019638
:10051000861798F38091C701680F6093C70180E048
:10052000089581E0089510921B0281E080931A02E1
:100530001092F50161E082E10E94A30161E083E194
:100540000E94A301E9EBF0E080818E7F80838081AF
:100550008D7F808388E48093B80085E48093BC001D
:100560000895CF93DF9391E09093A6018823B9F08B
:10057000C091B800D091BA008091BC008A7B809372
:10058000BC0060E082E10E94A30160E083E10E9480
:10059000A3010E949302D093BA00C093B800DF91E8
:1005A000CF910895CF92DF92EF92FF920F931F9316
:1005B000CF93DF93D091440281E0D13208F09CC008
:1005C000C09143020E9415026B017C0180911B02C5
:1005D00081116CC082E080931B0281E080931A023B
:1005E0008FEF8093190210921802D0931702A3E2A2
:1005F000B2E0E7EFF1E080E0D8138DC01092F60191
:100600008091F601CC0FC82BC093F6018091F501C3
:10061000813009F084C01092F5010E9415026B012F
:100620007C018091F6018093BB0080911D02909126
:100630001E02A0911F02B0912002892B8A2B8B2BC6
:10064000A1F00E94150200911D0210911E0220913E
:100650001F02309120026C197D098E099F0906172F
:1006600017072807390708F442C08091BC0083FDB2
:10067000D8CF85EC8093BC000E9415026B017C01F1
:1006800080911B02823009F44CC0809119028F3F87
:1006900009F469C080911902803209F466C0809122
:1006A0001902803309F463C084E026C080911D02E2
:1006B00090911E02A0911F02B0912002892B8A2BDB
:1006C0008B2B09F483CF0E94150200911D0210911B
:1006D0001E0220911F02309120026C197D098E09A3
:1006E0009F09061717072807390708F06FCF809171
:1006F0001C020E94B10285E0109222021092440274
:1007000010922102DF91CF911F910F91FF90EF90F6
:10071000DF90CF9008959D9191938F5F6DCF85EE7F
:10072000A9CF80911D0290911E02A0911F02B0914D
:100730002002892B8A2B8B2B09F4A2CF0E94150251
:1007400000911D0210911E0220911F023091200283
:100750006C197D098E099F090617170728073907A5
:1007600008F08ECFC4CF80E0C7CF82E0C5CF83E052
:10077000C3CF0895E091F4018091F301E81730F4BC
:10078000F0E0EA57FE4F808190E008958FEF9FEFF1
:1007900008959091F4018091F3012FEF3FEF9817A6
:1007A00048F4E92FF0E0EA57FE4F208130E09F5FE8
:1007B0009093F401C90108958091F3019091F4019F
:1007C000891B990B0895CF92DF92EF92FF920F93BE
:1007D0001F93CF93DF937C01CB018A0120912102EB
:1007E000222389F0EB016B01C40ED51ECC15DD056B
:1007F00069F06991D701ED91FC910190F081E02DB4
:10080000C7010995F3CF642F0E946C02C801DF91E4
:10081000CF911F910F91FF90EF90DF90CF900895AF
:10082000CF93DF931F92CDB7DEB76983209121026A
:100830002223F9F020914402203258F021E030E0E8
:10084000FC013383228390E080E00F90DF91CF9111
:10085000089580912202E82FF0E0ED5DFD4F99812F
:1008600090838F5F809322028093440281E090E026
:10087000ECCF61E0CE0101960E946C02F7CF682FA9
:1008800089E492E00C941004FC01248131E030935F
:100890002102209343021092220210924402838587
:1008A000862B90E00E943F040C94D202089590E0C1
:1008B00080E00895FC0101900020E9F73197AF0135
:1008C000481B590BBC018BED92E00C94210185ED86
:1008D0008093BC0080911D0290911E02A0911F0286
:1008E000B09120020796A11DB11D23E0B695A795F2
:1008F000979587952A95D1F72091BC0024FD03C0D8
:1009000010921B02089540911D0250911E026091A9
:100910001F0270912002452B462B472B69F300974D
:10092000A105B10541F025E32A95F1F700000197F3
:10093000A109B109E1CF80911C020C94B1020F937F
:100940001F93CF938C01C62F0E9444046C2F6460C8
:10095000C8010E9444046C2F6B7FC8010E944404AC
:1009600083EC90E00197F1F7CF911F910F910895DB
:100970000F931F93CF93DF938C01D62FC42F607FEB
:10098000642B0E949F0480E1D89FB00111246C2B3E
:10099000C801DF91CF911F910F910C949F04CF93C9
:1009A000DF93CDB7DEB728970FB6F894DEBF0FBE42
:1009B000CDBF98E0ECE0F1E0DE01119601900D92E0
:1009C0009A95E1F79091E302961708F46FEF262FBE
:1009D00030E0220F331F41E050E04C0F5D1F240F29
:1009E000351FF9016081680F606840E08BED92E08F
:1009F00028960FB6F894DEBF0FBECDBFDF91CF9122
:100A00000C94B80440E061E08BED92E00E94B804E1
:100A10008BE39FE10197F1F7089541E00E94B8044C
:100A200081E090E008954F925F926F927F928F9253
:100A30009F92AF92BF92CF92DF92EF92FF920F936D
:100A40001F93CF93DF932091740230917502213070
:100A5000310509F0F0C0833209F4EDC08A3209F0A3
:100A600075C18091C4029091C502FC013191209121
:100A7000C602A7ECB2E044963111B6C02111BCC049
:100A80000E94020560E082E00E94CF0483E491E0CE
:100A90000E945A0461E086E00E94CF0480E591E064
:100AA0000E945A04C1E0D9E4EE24EA9485EED82EDF
:100AB00095ECC92E2AE0F22E01E912E0C093210242
:100AC000D093430210922202109244028CEA90E0EA
:100AD0000E943F0482E090E00E943F0410922202B4
:100AE000109244028EEE90E00E943F040E94D202D7
:100AF00068EE73E080E090E00E943A02C093210229
:100B000010922202109244028AEA90E00E943F046E
:100B10000E94D2020E9415024B015C0180911B02CF
:100B200081119AC0C0931B02C0931A02E09219026D
:100B300010921802C0931702C093F6018091F6013B
:100B400082698093F6018091F501813009F0D7C068
:100B50001092F5010E9415024B015C018091F60193
:100B60008093BB0080911D0290911E02A0911F02F4
:100B7000B0912002892B8A2B8B2BA1F00E941502A9
:100B800040901D0250901E0260901F027090200243
:100B9000681979098A099B09461657066806790675
:100BA00008F47BC08091BC0083FDD8CFC092BC000C
:100BB0000E9415024B015C0180911B02813009F4F7
:100BC000A1C080911802823008F0BEC08091180246
:100BD000A7EFB1E0E6E8F1E090E0981709F462C011
:100BE0002D9121939F5FF9CF321306C031912D9142
:100BF0008E179F0709F040CF0E94020560E083E056
:100C00000E94CF0485E591E00E945A0461E082E0F1
:100C10000E94CF048FE591E00E945A0461E08BEDC1
:100C200092E00E940D058EE491E00E945A04109219
:100C3000DA021092C602DF91CF911F910F91FF90BF
:100C4000EF90DF90CF90BF90AF909F908F907F906C
:100C50006F905F904F90089580911D0290911E02B9
:100C6000A0911F02B0912002892B8A2B8B2B09F4B3
:100C700055CF0E94150240901D0250901E026090B8
:100C80001F0270902002681979098A099B0946168B
:100C900057066806790608F041CF80911C020E9431
:100CA000B10280E01092F4018093F30189E492E0B4
:100CB0000E94C9035C0190938501809384010E9486
:100CC000D202C0932102F0924302109222021092AB
:100CD0004402C5010E943F040E94D202E5E5F2E011
:100CE000848D833239F4878D90A1019719F481A105
:100CF0008111A1CF36960E171F0791F7DFCED09244
:100D0000BC0056CF80911D0290911E02A0911F023F
:100D1000B0912002892B8A2B8B2B09F44DCF0E9496
:100D2000150240901D0250901E0260901F027090AC
:100D30002002681979098A099B0946165706680630
:100D4000790608F039CFA9CF82E042CFE091DA02EC
:100D5000E33109F470CF91E09E0F9093DA02F0E056
:100D6000EC53FD4F8283E92FF0E0EC53FD4F1282EC
:100D700062CF1F920F920FB60F9211242F933F93C1
:100D80008F939F93AF93BF938091450290914602BA
:100D9000A0914702B09148023091EA0123E0230F6D
:100DA0002D3758F50196A11DB11D2093EA018093BE
:100DB000450290934602A0934702B0934802809167
:100DC000EB019091EC01A091ED01B091EE01019643
:100DD000A11DB11D8093EB019093EC01A093ED0157
:100DE000B093EE01BF91AF919F918F913F912F9161
:100DF0000F900FBE0F901F90189526E8230F0296B4
:100E0000A11DB11DD2CF1F920F920FB60F921124C8
:100E10002F933F934F935F936F937F938F939F9302
:100E2000AF93BF93EF93FF938091B900887F803693
:100E300009F44AC0F0F5883209F4A7C018F58031EA
:100E400009F49BC0B8F4882309F4F9C0883009F488
:100E500094C0FF91EF91BF91AF919F918F917F913E
:100E60006F915F914F913F912F910F900FBE0F9017
:100E70001F901895883109F488C0803251F780930B
:100E8000190214C0803409F49DC040F48033B9F3D2
:100E90008833F9F68093190285ECB0C0803509F4E7
:100EA00085C0883509F496C0883499F60E94670495
:100EB000D0CF883909F48CC038F5883729F050F440
:100EC000883611F0803729F683E080931B02109258
:100ED000E90157C0883809F47BC0803919F080389F
:100EE00009F0B7CF8091E901803208F071C0E0913C
:100EF000E90181E08E0F8093E9018091BB00F0E071
:100F0000E753FE4F80833DC0803B39F0E0F4803AE8
:100F100009F479C0883A09F09CCF84E080931B02E1
:100F20001092C8011092C701E091EF01F091F00119
:100F300009958091C70181110FC081E08093C7019D
:100F40001092A70109C0803C09F4A6CF883C09F49F
:100F5000A3CF883B09F07DCFE091C80181E08E0FDF
:100F60008093C801F0E0E955FE4F80818093BB007B
:100F70009091C8018091C70129C08091F6018093AA
:100F8000BB0085EC8093BC0064CF909118028091E7
:100F90001702981758F5E091180281E08E0F8093A0
:100FA0001802F0E0E950FE4F8081E9CFE09118028D
:100FB00081E08E0F809318028091BB00F0E0E95031
:100FC000FE4F808390911802809117029817C8F203
:100FD00085E8D8CFE091180281E08E0F8093180247
:100FE0008091BB00F0E0E950FE4F808380911A02AF
:100FF00081115CCF81E08093F50184EA8093BC008D
:1010000010921B0226CF85EC8093BC0010921B022D
:101010008091E901803230F4E091E901F0E0E7539A
:10102000FE4F10826091E90170E0E091F101F091D2
:10103000F20189EC91E009951092E9010ACF109232
:10104000190234CF10924C0210924B0288EE93E0BA
:10105000A0E0B0E080934D0290934E02A0934F0227
:10106000B093500288E191E090934A028093490244
:101070001092DE021092DD0284E391E09093DC0294
:101080008093DB0280E28093DF0282E18093E402BE
:1010900082E08093E5021092E60288E691E0909368
:1010A000C5028093C4021092DA021092C602109216
:1010B000570210925B0210925A0210925C028AE26E
:1010C00091E09093560280935502E1E7F2E010829E
:1010D000148213821582369682E0ED3AF807B9F74A
:1010E0008FE391E09093B8028093B7028CE391E094
:1010F0009093BA028093B90284E08093BB0283E0AC
:101100008093BC0280E091E09093B6028093B50298
:101110008AE090E09093BE028093BD0284EF91E05C
:101120009093C0028093BF021092C3021092C20239
:101130001092B1021092B2021092B3021092B40255
:101140001092C1020895789484B5826084BD84B5FC
:10115000816084BD85B5826085BD85B5816085BDB2
:1011600080916E00816080936E001092810080916A
:1011700081008260809381008091810081608093F2
:101180008100809180008160809380008091B10017
:1011900084608093B1008091B00081608093B00042
:1011A00080917A00846080937A0080917A008260D6
:1011B00080937A0080917A00816080937A00809198
:1011C0007A00806880937A001092C1001092F40136
:1011D0001092F30110922202109244020E94930294
:1011E0008FE191E09093F0018093EF0180E291E034
:1011F0009093F2018093F1011092E0028091E50258
:10120000823018F098E09093E0028093E30262E36A
:1012100070E080E090E00E943A026091E6028BED7F
:1012200092E00E94440468EE73E080E090E00E9447
:101230003A0260E38BED92E00E949F04CBE4D6E497
:10124000CE010197F1F760E38BED92E00E949F04DD
:101250002197F1F760E38BED92E00E949F0483E514
:1012600092E00197F1F760E28BED92E00E949F041B
:101270006091E002606240E08BED92E00E94B80471
:1012800084E08093E10240E06CE08BED92E00E940C
:10129000B8040E94020582E08093E20240E066E02A
:1012A0008BED92E00E94B80440E062E08BED92E0AA
:1012B0000E94B8048BE39FE10197F1F783E195E089
:1012C0009093C3028093C2021092220210924402B1
:1012D0000E94930260E083E00E94CF048FE691E0D9
:1012E0000E945A0461E084E00E94CF048AE791E002
:1012F0000E945A04812C912C5401839422242A9414
:10130000322C50E0652E50E0752E51E05093C10212
:101310008FB7F89440914502509146026091470280
:10132000709148028FBF8091B1029091B202A0915A
:10133000B302B091B402481B590B6A0B7B0B80912E
:10134000BD029091BE02B0E0A0E0C0E08417950716
:10135000A607B70740F01092C10261147104A9F208
:101360000E940000D2CF8091BB02C81760F4E091C8
:10137000B702F091B802EC0FF11D62E080810E948B
:10138000D501CF5FF0CF512C8091BC02581608F0E8
:101390005FC0052D10E0E091B902F091BA02E00FB4
:1013A000F11F61E080810E94D501E091B902F091C6
:1013B000BA02E00FF11F60E080810E94A301D50115
:1013C000C401052C04C0880F991FAA1FBB1F0A94D3
:1013D000D2F76C017C01E094F094412C8091BB0227
:1013E0004816F8F4C42DD0E0E091B702F091B802AD
:1013F000EC0FFD1F80810E9477012496CC0FDD1F2A
:10140000CB5ADD4F892B41F4888199818C299D2904
:10141000998388834394E2CF888199818E219F218B
:10142000F7CFE091B902F091BA02E00FF11F61E04D
:1014300080810E94A3018091B9029091BA02080FA5
:10144000191F60E0F80180810E94D50153949CCF60
:10145000C5E5D2E0FE01878D90A1892B21F4148E81
:10146000368E258E11A2369652E0E139F50799F7AE
:1014700010E08091BB02181708F053C000E0E12E85
:10148000F12CEE0CFF1CC701835A9D4F7C0120916B
:10149000BC02021708F043C0F70160817181002E81
:1014A00002C0769567950A94E2F7129F9001112485
:1014B000200F311DE5E5F2E080E0458D568D2417C3
:1014C000350709F45AC08F5F36968A30B1F760FF4E
:1014D00024C0E5E5F2E090E080E0448D411118C0C1
:1014E000E091B502F091B602E20FF31F408156E0A1
:1014F000589FF001599FF00D1124EB5AFD4F448F76
:10150000368F258F10A2178E61E00E94AF0005C0B4
:10151000019636968A30910501F70F5FB8CF1F5FAD
:10152000A8CF80E099A19111892F269692E0C13928
:10153000D907C1F79FB7F8944091450250914602F0
:1015400060914702709148029FBF4093B10250934F
:10155000B2026093B3027093B402882309F4FBCE05
:1015600080917602882309F4F6CE809174029091DE
:101570007502019709F0EFCEF0CE6170C6CFEE0F85
:10158000FF1F0590F491E02D0994F894FFCF3132BC
:10159000333435363738392A302300004000140000
:1015A0005400000000001004E3035704B903DC03F7
:1015B000C903BA03000000001102D101A00100001C
:1015C00000000D052101570456040D0C0B0A0908F3
:1015D000074249454E56454E49444F20410043413C
:1015E0005341004552524F5220454E2000434F4E2A
:1015F000545241534500323032313133004341536C
:101600004120414359453100412D4731332D53325B
:021610000000D8
:107E0000112484B714BE81FFF0D085E080938100F7
:107E100082E08093C00088E18093C10086E0809377
:107E2000C20080E18093C4008EE0C9D0259A86E02C
:107E300020E33CEF91E0309385002093840096BBD3
:107E4000B09BFECF1D9AA8958150A9F7CC24DD24C4
:107E500088248394B5E0AB2EA1E19A2EF3E0BF2EE7
:107E6000A2D0813461F49FD0082FAFD0023811F036
:107E7000013811F484E001C083E08DD089C08234E0
:107E800011F484E103C0853419F485E0A6D080C0E4
:107E9000853579F488D0E82EFF2485D0082F10E0AE
:107EA000102F00270E291F29000F111F8ED06801E7
:107EB0006FC0863521F484E090D080E0DECF843638
:107EC00009F040C070D06FD0082F6DD080E0C81688
:107ED00080E7D80618F4F601B7BEE895C0E0D1E017
:107EE00062D089930C17E1F7F0E0CF16F0E7DF06D8
:107EF00018F0F601B7BEE89568D007B600FCFDCFD4
:107F0000A601A0E0B1E02C9130E011968C91119780
:107F100090E0982F8827822B932B1296FA010C0160
:107F200087BEE89511244E5F5F4FF1E0A038BF0790
:107F300051F7F601A7BEE89507B600FCFDCF97BE46
:107F4000E89526C08437B1F42ED02DD0F82E2BD052
:107F50003CD0F601EF2C8F010F5F1F4F84911BD097
:107F6000EA94F801C1F70894C11CD11CFA94CF0C13
:107F7000D11C0EC0853739F428D08EE10CD085E9AC
:107F80000AD08FE07ACF813511F488E018D01DD067
:107F900080E101D065CF982F8091C00085FFFCCF94
:107FA0009093C60008958091C00087FFFCCF809118
:107FB000C00084FD01C0A8958091C6000895E0E648
:107FC000F0E098E1908380830895EDDF803219F02E
:107FD00088E0F5DFFFCF84E1DECF1F93182FE3DFCA
:107FE0001150E9F7F2DF1F91089580E0E8DFEE27F6
:047FF000FF270994CA
:027FFE00040479
:00000001FF
