:020000040000FA
:100000000C9462000C948A000C948A000C948A0070
:100010000C948A000C948A000C948A000C948A0038
:100020000C948A000C948A000C948A000C948A0028
:100030000C948A000C948A000C948A000C948A0018
:100040000C943D080C948A000C940B080C94E50762
:100050000C948A000C948A000C948A000C948A00F8
:100060000C9487080C948A000000000024002700EC
:100070002A0000000000250028002B0000000000DE
:1000800023002600290004040404040404040202DA
:100090000202020203030303030301020408102007
:1000A0004080010204081020010204081020000012
:1000B0000008000201000003040700000000000027
:1000C0000000A60911241FBECFEFD8E0DEBFCDBFD0
:1000D00011E0A0E0B1E0E2EDF9E102C005900D927F
:1000E000AE39B107D9F723E0AEE9B1E001C01D9206
:1000F000AC39B207E1F710E0C2E6D0E004C02197C6
:10010000FE010E94E10CC136D107C9F70E94650AC1
:100110000C94E70C0C94000096E0899FD001112408
:10012000A65FBC4F90967C936E935F9791E09196FB
:100130009C939197E0917703F091780390917603E7
:10014000992339F0309751F0811108C0809126032E
:100150000994309719F05C968C91FACF0895CF925C
:10016000DF92EF92FF920F931F9396E0899FF00129
:100170001124E65FFC4F11A2278D30A121303105FB
:1001800051F178F02230310509F451C023303105A6
:1001900009F452C01F910F91FF90EF90DF90CF9024
:1001A00008956623B9F361E070E00E948C002FB7D8
:1001B000F89480915D0290915E02A0915F02B091EF
:1001C00060022FBF8093620390936303A093640344
:1001D000B0936503DFCF9FB7F894C0905D02D090D5
:1001E0005E02E0905F02F09060029FBF00916203A8
:1001F000109163032091640330916503C01AD10A02
:10020000E20AF30A009174031091750330E020E0D4
:100210000C151D052E053F0550F462E070E01F919E
:100220000F91FF90EF90DF90CF900C948C006111B4
:10023000B1CF63E070E0F3CF70E060E0F0CF0895FD
:100240000895AF92BF92CF92DF92EF92FF920F93F9
:100250001F93CF93DF936C017B018B01040F151F5C
:10026000EB015E01AE18BF08C017D10759F06991C4
:10027000D601ED91FC910190F081E02DC601099528
:10028000892B79F7C501DF91CF911F910F91FF90D5
:10029000EF90DF90CF90BF90AF900895FC01538D09
:1002A000448D252F30E0842F90E0821B930B541750
:1002B00010F0CF96089501970895FC01918D828DDD
:1002C000981761F0A28DAE0FBF2FB11D5D968C9176
:1002D000928D9F5F9F73928F90E008958FEF9FEFB5
:1002E0000895FC01918D828D981731F0828DE80F71
:1002F000F11D858D90E008958FEF9FEF0895FC012B
:10030000918D228D892F90E0805C9F4F821B9109F7
:100310008F739927089581E692E00E947F0121E082
:10032000892B09F420E0822F089580E090E0892B4A
:1003300029F00E948B0181110C9400000895FC01AA
:10034000A48DA80FB92FB11DA35ABF4F2C91848D36
:1003500090E001968F739927848FA689B7892C9393
:10036000A089B1898C91837080648C93938D848DE6
:10037000981306C00288F389E02D80818F7D8083E9
:100380000895EF92FF920F931F93CF93DF93EC01A9
:1003900081E0888F9B8D8C8D98131AC0E889F9892C
:1003A000808185FF15C09FB7F894EE89FF8960832F
:1003B000E889F98980818370806480839FBF81E0B0
:1003C00090E0DF91CF911F910F91FF90EF900895F2
:1003D000F62E0B8D10E00F5F1F4F0F731127E02ECD
:1003E0008C8D8E110CC00FB607FCFACFE889F98905
:1003F000808185FFF5CFCE010E949F01F1CFEB8D6B
:10040000EC0FFD2FF11DE35AFF4FF0829FB7F894D8
:100410000B8FEA89FB8980818062CFCFCF93DF93F6
:10042000EC01888D8823B9F0AA89BB89E889F9890C
:100430008C9185FD03C0808186FD0DC00FB607FC41
:10044000F7CF8C9185FFF2CF808185FFEDCFCE0174
:100450000E949F01E9CFDF91CF910895833081F011
:1004600028F4813099F08230A9F008958730A9F0FE
:100470008830C9F08430B1F4809180008F7D03C052
:10048000809180008F7780938000089584B58F7766
:1004900084BD089584B58F7DFBCF8091B0008F77A8
:1004A0008093B00008958091B0008F7DF9CFCF93F5
:1004B000DF93282F30E0F901E255FF4F8491F901D5
:1004C000E656FF4FD491F901EA57FF4FC491CC2370
:1004D000A1F081110E942E02EC2FF0E0EE0FFF1F21
:1004E000E458FF4FA591B491EC91ED2381E090E0A9
:1004F00009F480E0DF91CF91089580E090E0FACF99
:10050000862F0C9457021F93CF93DF93282F30E050
:10051000F901E255FF4F8491F901E656FF4FD4915E
:10052000F901EA57FF4FC491CC23A9F0162F81118E
:100530000E942E02EC2FF0E0EE0FFF1FEE58FF4F4F
:10054000A591B4918FB7F894EC91111108C0D09592
:10055000DE23DC938FBFDF91CF911F910895DE2BB7
:10056000F8CF862F642F0C948302CF93DF9390E013
:10057000FC01E656FF4F24918A579F4FFC0184915E
:100580008823C9F090E0880F991FFC01E859FF4FBC
:10059000A591B491FC01EE58FF4FC591D491611122
:1005A0000DC09FB7F8948C91209582238C938881FD
:1005B000282328839FBFDF91CF910895623051F4A3
:1005C0009FB7F8943C91822F809583238C93E88188
:1005D0002E2BEFCF8FB7F894EC912E2B2C938FBF4F
:1005E000EACF862F642F0C94B5023FB7F894809120
:1005F000030290910402A0910502B091060226B573
:10060000A89B05C02F3F19F00196A11DB11D3FBF4A
:10061000BA2FA92F982F8827BC01CD01620F711D19
:10062000811D911D42E0660F771F881F991F4A9513
:10063000D1F708958F929F92AF92BF92CF92DF929F
:10064000EF92FF924B015C010E94F5026B017C016D
:100650000E94F5026C197D098E099F09683E73405E
:1006600081059105A8F321E0821A9108A108B1083B
:1006700088EEC80E83E0D81EE11CF11C81149104A1
:10068000A104B10429F7FF90EF90DF90CF90BF90C5
:10069000AF909F908F9008952091DF01260F332710
:1006A000331F21323105ECF420913302FC0190E03C
:1006B00080E0243069F082E00895A091DF0121916B
:1006C000AC0141545E4FA40FB52FB11D2C93019680
:1006D000861798F38091DF01680F6093DF0180E057
:1006E000089581E008951092330281E080933202F0
:1006F00010920D0261E082E10E94830261E083E1D9
:100700000E948302E9EBF0E080818E7F808380810C
:100710008D7F808388E48093B80085E48093BC005B
:100720000895CF93DF9391E09093BE018823B9F0B1
:10073000C091B800D091BA008091BC008A7B8093B0
:10074000BC0060E082E10E94830260E083E10E94DD
:1007500083020E947303D093BA00C093B800DF9164
:10076000CF910895CF92DF92EF92FF920F931F9354
:10077000CF93DF93D0915C0281E0D13208F09CC02E
:10078000C0915B020E94F5026B017C0180913302F3
:1007900081116CC082E08093330281E08093320249
:1007A0008FEF8093310210923002D0932F02ABE38F
:1007B000B2E0EFE0F2E080E0D8138DC010920E02BC
:1007C00080910E02CC0FC82BC0930E0280910D02B7
:1007D000813009F084C010920D020E94F5026B0175
:1007E0007C0180910E028093BB0080913502909134
:1007F0003602A0913702B0913802892B8A2B8B2BBD
:10080000A1F00E94F502009135021091360220916C
:100810003702309138026C197D098E099F0906173D
:1008200017072807390708F442C08091BC0083FDF0
:10083000D8CF85EC8093BC000E94F5026B017C014F
:1008400080913302823009F44CC0809131028F3F95
:1008500009F469C080913102803209F466C0809148
:100860003102803309F463C084E026C080913502F0
:1008700090913602A0913702B0913802892B8A2BD1
:100880008B2B09F483CF0E94F50200913502109161
:10089000360220913702309138026C197D098E0999
:1008A0009F09061717072807390708F06FCF8091AF
:1008B00034020E94910385E010923A0210925C0289
:1008C00010923902DF91CF911F910F91FF90EF901D
:1008D000DF90CF9008959D9191938F5F6DCF85EEBE
:1008E000A9CF8091350290913602A0913702B09144
:1008F0003802892B8A2B8B2B09F4A2CF0E94F50298
:100900000091350210913602209137023091380261
:100910006C197D098E099F090617170728073907E3
:1009200008F08ECFC4CF80E0C7CF82E0C5CF83E090
:10093000C3CF0895E0910C0280910B02E81730F4C8
:10094000F0E0E256FE4F808190E008958FEF9FEF38
:10095000089590910C0280910B022FEF3FEF9817B2
:1009600048F4E92FF0E0E256FE4F208130E09F5F2F
:1009700090930C02C901089580910B0290910C0292
:10098000891B990B0895CF92DF92EF92FF920F93FC
:100990001F93CF93DF937C01CB018A012091390211
:1009A000222389F0EB016B01C40ED51ECC15DD05A9
:1009B00069F06991D701ED91FC910190F081E02DF2
:1009C000C7010995F3CF642F0E944C03C801DF9142
:1009D000CF911F910F91FF90EF90DF90CF900895EE
:1009E000CF93DF931F92CDB7DEB769832091390291
:1009F0002223F9F020915C02203258F021E030E00F
:100A0000FC013383228390E080E00F90DF91CF914F
:100A1000089580913A02E82FF0E0E55CFD4F99815E
:100A200090838F5F80933A0280935C0281E090E034
:100A3000ECCF61E0CE0101960E944C03F7CF682F06
:100A40008EEF92E00C94F004FC01248131E03093AD
:100A5000390220935B0210923A0210925C02838565
:100A6000862B90E00E941F050C94B203089590E03D
:100A700080E0089585ED8093BC00809135029091CF
:100A80003602A0913702B09138020796A11DB11D20
:100A900023E0B695A795979587952A95D1F720914C
:100AA000BC0024FD03C0109233020895409135022A
:100AB000509136026091370270913802452B462BD7
:100AC000472B69F30097A105B10541F025E32A956D
:100AD000F1F700000197A109B109E1CF809134023B
:100AE0000C9491030F931F93CF938C01C62F0E94F8
:100AF00024056C2F6460C8010E9424056C2F6B7F55
:100B0000C8010E94240583EC90E00197F1F7CF9192
:100B10001F910F9108950F931F93CF93DF938C0133
:100B2000D62FC42F607F642B0E94720580E1D89F6E
:100B3000B00111246C2BC801DF91CF911F910F914F
:100B40000C947205CF93DF93CDB7DEB728970FB61D
:100B5000F894DEBF0FBECDBF98E0ECE0F1E0DE011F
:100B6000119601900D929A95E1F79091980396173E
:100B700008F46FEF262F30E0220F331F41E050E0E2
:100B80004C0F5D1F240F351FF9016081680F6068ED
:100B900040E080E993E028960FB6F894DEBF0FBEE0
:100BA000CDBFDF91CF910C948B0540E061E080E9EF
:100BB00093E00E948B058BE39FE10197F1F7089585
:100BC00041E00E948B0581E090E00895FB010190D7
:100BD0000020E9F73197AF01461B570BDC01ED917F
:100BE000FC910280F381E02D099481E08093390229
:100BF0008AE080935B0210923A0210925C0265E5F3
:100C000071E08EEF92E00E94E6050E94B20368EE6A
:100C100073E080E090E00C941A038F929F92AF9261
:100C2000BF92CF92DF92EF92FF921F93CF93DF9309
:100C3000CDB7DEB7A1970FB6F894DEBF0FBECDBF1C
:100C40002091290330912A032130310509F054C144
:100C5000833209F4A4C18A3209F0A4C180917903D6
:100C600090917A03FC01319120917B03ACE7B3E0D2
:100C700044963111B3C02111B9C00E94D50560E07E
:100C800082E00E94A2056DE571E080E993E00E9498
:100C9000E60561E086E00E94A2056AE671E080E96F
:100CA00093E00E94E60511E01093390289E48093F5
:100CB0005B0210923A0210925C028CEA90E00E9471
:100CC0001F0582E090E00E941F0510923A021092E8
:100CD0005C028EEE90E00E941F050E94B20368EE57
:100CE00073E080E090E00E941A03109339021092A2
:100CF0003A0210925C028AEA90E00E941F050E946C
:100D0000B2030E94F5026B017C01809133028111D4
:100D100093C081E080933302809332029FEF9093DF
:100D200031021092300280932F0280930E02809144
:100D30000E02826980930E0280910D02813009F0CB
:100D4000EDC010920D020E94F5026B017C018091B2
:100D50000E028093BB008091350290913602A091E3
:100D60003702B0913802892B8A2B8B2BA1F00E947D
:100D7000F5028090350290903602A0903702B09034
:100D800038026C197D098E099F0986169706A806F8
:100D9000B90608F472C08091BC0083FDD8CF85EC01
:100DA0008093BC000E94F5026B017C0180913302AC
:100DB000813009F4B5C080913002823008F0D2C091
:100DC00080913002AFE0B2E0EEE9F1E090E09817F8
:100DD00009F458C02D9121939F5FF9CF321306C0BB
:100DE00031912D918E179F0709F043CF0E94D505B1
:100DF00060E083E00E94A2056FE671E080E993E085
:100E00000E94E60561E082E00E94A20569E771E0C8
:100E100080E993E00E94E60561E080E993E00E94AA
:100E2000E00568E671E080E993E00E94E605109233
:100E30008F0310927B0360C080913502909136023F
:100E4000A0913702B0913802892B8A2B8B2B09F4A1
:100E50005CCF0E94F5028090350290903602A090FF
:100E60003702B09038026C197D098E099F098616E9
:100E70009706A806B90608F048CF809134020E9470
:100E8000910380E010920C0280930B028EEF92E0AF
:100E90000E94A9046C01990FEE08FF08F7FE64C0D8
:100EA0006DE281E692E00E94C10122273327A90169
:100EB0002C193D094E095F0919A2CE0181967C01CA
:100EC0009AE0892E912CA12CB12CCA01B901A5015F
:100ED00094010E94BF0C605DF70162937F012115B0
:100EE00031054105510589F7E114F10429F0B701F5
:100EF00081E692E00E94E605A1960FB6F894DEBF67
:100F00000FBECDBFDF91CF911F91FF90EF90DF908B
:100F1000CF90BF90AF909F908F90089585EE40CF77
:100F20008091350290913602A0913702B09138023B
:100F3000892B8A2B8B2B09F439CF0E94F5028090E4
:100F4000350290903602A0903702B09038026C19AA
:100F50007D098E099F0986169706A806B90608F02E
:100F600025CF8BCF82E02ECFA701960119A2CE010B
:100F700081967C018AE0882E912CA12CB12CCA018B
:100F8000B901A50194010E94BF0C605DF701629355
:100F90007F01211531054105510589F7A5CF0E9433
:100FA000F50545CFE0918F03E33109F4A5CF91E03A
:100FB0009E0F90938F03F0E0E758FC4F8283E92F58
:100FC000F0E0E758FC4F128297CF1F920F920FB6B6
:100FD0000F9211242F933F934F935F936F937F93BF
:100FE0008F939F93AF93BF93EF93FF9381E692E02C
:100FF0000E949F01FF91EF91BF91AF919F918F91BF
:101000007F916F915F914F913F912F910F900FBE04
:101010000F901F9018951F920F920FB60F921124E8
:101020002F938F939F93EF93FF93E0917102F09131
:1010300072028081E0917702F091780282FD1BC0FC
:10104000908180917A028F5F8F7320917B0282174B
:1010500041F0E0917A02F0E0EF59FD4F958F8093D7
:101060007A02FF91EF919F918F912F910F900FBE78
:101070000F901F9018958081F4CF1F920F920FB69A
:101080000F9211242F933F938F939F93AF93BF930E
:1010900080915D0290915E02A0915F02B09160022A
:1010A0003091020223E0230F2D3758F50196A11D40
:1010B000B11D2093020280935D0290935E02A09383
:1010C0005F02B09360028091030290910402A091AC
:1010D0000502B09106020196A11DB11D8093030285
:1010E00090930402A0930502B0930602BF91AF91C2
:1010F0009F918F913F912F910F900FBE0F901F9056
:10110000189526E8230F0296A11DB11DD2CF1F927C
:101110000F920FB60F9211242F933F934F935F932B
:101120006F937F938F939F93AF93BF93EF93FF93AF
:101130008091B900887F803609F44AC0F0F5883282
:1011400009F4A7C018F5803109F49BC0B8F48823CE
:1011500009F4F9C0883009F494C0FF91EF91BF9170
:10116000AF919F918F917F916F915F914F913F913F
:101170002F910F900FBE0F901F901895883109F492
:1011800088C0803251F78093310214C0803409F452
:101190009DC040F48033B9F38833F9F6809331026F
:1011A00085ECB0C0803509F485C0883509F496C057
:1011B000883499F60E943A05D0CF883909F48CC05A
:1011C00038F5883729F050F4883611F0803729F641
:1011D00083E0809333021092010257C0883809F4EB
:1011E0007BC0803919F0803809F0B7CF80910102B7
:1011F000803208F071C0E091010281E08E0F80938F
:1012000001028091BB00F0E0EF51FE4F80833DC0B2
:10121000803B39F0E0F4803A09F479C0883A09F06B
:101220009CCF84E0809333021092E0011092DF01A2
:10123000E0910702F091080209958091DF01811188
:101240000FC081E08093DF011092BF0109C0803C94
:1012500009F4A6CF883C09F4A3CF883B09F07DCFE1
:10126000E091E00181E08E0F8093E001F0E0E15435
:10127000FE4F80818093BB009091E0018091DF015F
:1012800029C080910E028093BB0085EC8093BC0046
:1012900064CF9091300280912F02981758F5E09119
:1012A000300281E08E0F80933002F0E0E15FFD4F6D
:1012B0008081E9CFE091300281E08E0F809330028F
:1012C0008091BB00F0E0E15FFD4F808390913002A0
:1012D00080912F029817C8F285E8D8CFE0913002AC
:1012E00081E08E0F809330028091BB00F0E0E15FDF
:1012F000FD4F80838091320281115CCF81E0809329
:101300000D0284EA8093BC001092330226CF85EC54
:101310008093BC001092330280910102803230F43D
:10132000E0910102F0E0EF51FE4F10826091010266
:1013300070E0E0910902F0910A0281EE91E00995D6
:10134000109201020ACF1092310234CF109264023F
:101350001092630288EE93E0A0E0B0E08093650213
:1013600090936602A0936702B093680228E131E08F
:10137000309362022093610225EC30E030936E02DC
:1013800020936D0224EC30E03093700220936F02C2
:1013900020EC30E0309372022093710221EC30E0B7
:1013A000309374022093730222EC30E03093760283
:1013B0002093750226EC30E0309378022093770278
:1013C00010927A0210927B0210927C0210927D029F
:1013D0001092010310920003809302039093030381
:1013E000A0930403B09305038AE291E09093FF0277
:1013F0008093FE02109293031092920386E491E090
:10140000909391038093900380E28093940382E110
:101410008093990382E080939A0310929B0382E861
:1014200091E090937A038093790310928F03109246
:101430007B0310920C031092100310920F03109272
:1014400011038CE391E090930B0380930A03E6E28F
:10145000F3E01082148213821582369683E0E2361E
:10146000F807B9F781E591E090936D0380936C03E1
:101470008EE491E090936F0380936E0384E08093F9
:10148000700383E08093710380E091E090936B039D
:1014900080936A038AE090E09093730380937203D1
:1014A00084EF91E090937503809374031092780316
:1014B00010927703109266031092670310926803EC
:1014C00010926903109276030895789484B582602F
:1014D00084BD84B5816084BD85B5826085BD85B5D8
:1014E000816085BD80916E00816080936E00109256
:1014F00081008091810082608093810080918100D1
:101500008160809381008091800081608093800061
:101510008091B10084608093B1008091B0008160BF
:101520008093B00080917A00846080937A008091EB
:101530007A00826080937A0080917A008160809343
:101540007A0080917A00806880937A001092C100BE
:1015500010920C0210920B0210923A0210925C024E
:101560000E9473038FE191E0909308028093070239
:1015700080E291E090930A02809309021092950311
:1015800080919A03823018F098E0909395038093AD
:10159000980362E370E080E090E00E941A0360919B
:1015A0009B0380E993E00E94240568EE73E080E0ED
:1015B00090E00E941A0360E380E993E00E947205C4
:1015C000CBE4D6E4CE010197F1F760E380E993E044
:1015D0000E9472052197F1F760E380E993E00E9491
:1015E000720583E592E00197F1F760E280E993E00C
:1015F0000E94720560919503606240E080E993E08B
:101600000E948B0584E08093960340E06CE080E9C3
:1016100093E00E948B050E94D505C2E0C09397031A
:1016200040E066E080E993E00E948B0540E062E0E4
:1016300080E993E00E948B058BE39FE10197F1F72E
:10164000E0917102F0917202C083E0916D02F0911D
:101650006E021082E0916F02F09170028FEC808335
:1016600010927902E0917502F091760286E0808313
:10167000E0917302F0917402808180618083E09137
:101680007302F0917402808188608083E09173021C
:10169000F0917402808180688083E0917302F09100
:1016A000740280818F7D808310923A0210925C02D6
:1016B0000E94730360E083E00E94A20569E871E084
:1016C00080E993E00E94E60561E084E00E94A205C3
:1016D00064E971E080E993E00E94E6050E94F50567
:1016E0008DE096E09093780380937703812C912C82
:1016F0005401839422242A94322C50E0652E50E029
:10170000752E51E0509376038FB7F89440915D02A7
:1017100050915E0260915F02709160028FBF809174
:10172000660390916703A0916803B0916903481B19
:10173000590B6A0B7B0B8091720390917303B0E09D
:10174000A0E0C0E084179507A607B70760F01092E5
:10175000760361147104A9F20E948B01882389F237
:101760000E940000CECF80917003C81760F4E09112
:101770006C03F0916D03EC0FF11D62E080810E941B
:10178000B502CF5FF0CF512C80917103581608F04D
:101790005FC0052D10E0E0916E03F0916F03E00F44
:1017A000F11F61E080810E94B502E0916E03F0912B
:1017B0006F03E00FF11F60E080810E948302D5017A
:1017C000C401052C04C0880F991FAA1FBB1F0A94CF
:1017D000D2F76C017C01E094F094412C809170036D
:1017E0004816F8F4C42DD0E0E0916C03F0916D033D
:1017F000EC0FFD1F80810E9457022496CC0FDD1F45
:10180000C65FDC4F892B41F4888199818C299D2901
:10181000998388834394E2CF888199818E219F2187
:10182000F7CFE0916E03F0916F03E00FF11F61E0DD
:1018300080810E94830280916E0390916F03080F54
:10184000191F60E0F80180810E94B50253949CCF7B
:10185000CAE0D3E0FE01878D90A1892B21F4148E7C
:10186000368E258E11A2369653E0E634F50799F7A9
:1018700010E080917003181708F053C000E0E12ECB
:10188000F12CEE0CFF1CC7018E5E9C4F7C01209159
:101890007103021708F043C0F70160817181002EC7
:1018A00002C0769567950A94E2F7129F9001112481
:1018B000200F311DEAE0F3E080E0458D568D2417BE
:1018C000350709F45AC08F5F36968A30B1F760FF4A
:1018D00024C0EAE0F3E090E080E0448D411118C0BC
:1018E000E0916A03F0916B03E20FF31F408156E031
:1018F000589FF001599FF00D1124E65FFC4F448F73
:10190000368F258F10A2178E61E00E94AF0005C0B0
:10191000019636968A30910501F70F5FB8CF1F5FA9
:10192000A8CF80E099A19111892F269693E0C63423
:10193000D907C1F79FB7F89440915D0250915E02BC
:1019400060915F02709160029FBF40936603509365
:1019500067036093680370936903882309F4F7CEE3
:1019600080912B03882309F4F2CE80912903909172
:101970002A03019709F0EBCEECCE6170C6CFA1E24D
:101980001A2EAA1BBB1BFD010DC0AA1FBB1FEE1FF9
:10199000FF1FA217B307E407F50720F0A21BB30B44
:1019A000E40BF50B661F771F881F991F1A9469F7C0
:1019B00060957095809590959B01AC01BD01CF011C
:1019C0000895EE0FFF1F0590F491E02D0994F8940F
:1019D000FFCF3132333435363738392A30230000DF
:1019E00040001400540000000000C10121014E011C
:1019F0000E027F015D01710100000000F004C304CC
:101A000037059904BC04A9049A0400000000F102FF
:101A1000B102800200000000E00521013705360513
:101A20000D0C0B0A0908074150414741444F004241
:101A300049454E56454E49444F204100434153418C
:101A4000004552524F5220454E2000434F4E5452B3
:101A5000415345003230323131330043415341204C
:101A6000414359453100412D4731332D5332000058
:107E0000112484B714BE81FFF0D085E080938100F7
:107E100082E08093C00088E18093C10086E0809377
:107E2000C20080E18093C4008EE0C9D0259A86E02C
:107E300020E33CEF91E0309385002093840096BBD3
:107E4000B09BFECF1D9AA8958150A9F7CC24DD24C4
:107E500088248394B5E0AB2EA1E19A2EF3E0BF2EE7
:107E6000A2D0813461F49FD0082FAFD0023811F036
:107E7000013811F484E001C083E08DD089C08234E0
:107E800011F484E103C0853419F485E0A6D080C0E4
:107E9000853579F488D0E82EFF2485D0082F10E0AE
:107EA000102F00270E291F29000F111F8ED06801E7
:107EB0006FC0863521F484E090D080E0DECF843638
:107EC00009F040C070D06FD0082F6DD080E0C81688
:107ED00080E7D80618F4F601B7BEE895C0E0D1E017
:107EE00062D089930C17E1F7F0E0CF16F0E7DF06D8
:107EF00018F0F601B7BEE89568D007B600FCFDCFD4
:107F0000A601A0E0B1E02C9130E011968C91119780
:107F100090E0982F8827822B932B1296FA010C0160
:107F200087BEE89511244E5F5F4FF1E0A038BF0790
:107F300051F7F601A7BEE89507B600FCFDCF97BE46
:107F4000E89526C08437B1F42ED02DD0F82E2BD052
:107F50003CD0F601EF2C8F010F5F1F4F84911BD097
:107F6000EA94F801C1F70894C11CD11CFA94CF0C13
:107F7000D11C0EC0853739F428D08EE10CD085E9AC
:107F80000AD08FE07ACF813511F488E018D01DD067
:107F900080E101D065CF982F8091C00085FFFCCF94
:107FA0009093C60008958091C00087FFFCCF809118
:107FB000C00084FD01C0A8958091C6000895E0E648
:107FC000F0E098E1908380830895EDDF803219F02E
:107FD00088E0F5DFFFCF84E1DECF1F93182FE3DFCA
:107FE0001150E9F7F2DF1F91089580E0E8DFEE27F6
:047FF000FF270994CA
:027FFE00040479
:00000001FF
