:100000000C9462000C948A000C948A000C948A0070
:100010000C948A000C948A000C948A000C948A0038
:100020000C948A000C948A000C948A000C948A0028
:100030000C948A000C948A000C948A000C948A0018
:100040000C94B9060C948A000C948A000C948A00D3
:100050000C948A000C948A000C948A000C948A00F8
:100060000C9403070C948A00000000002400270071
:100070002A0000000000250028002B0000000000DE
:1000800023002600290004040404040404040202DA
:100090000202020203030303030301020408102007
:1000A0004080010204081020010204081020000012
:1000B0000008000201000003040700000000000027
:1000C0000000220811241FBECFEFD8E0DEBFCDBF55
:1000D00011E0A0E0B1E0E4EBF5E102C005900D9283
:1000E000AC38B107D9F722E0ACE8B1E001C01D920D
:1000F000AF3EB207E1F710E0C2E6D0E004C02197BE
:10010000FE010E94D20AC136D107C9F70E94A30896
:100110000C94D80A0C94000096E0899FD001112419
:10012000A35ABD4F90967C936E935F9791E0919602
:100130009C939197E091CA02F091CB029091C902F1
:10014000992339F0309751F0811108C080917902DC
:100150000994309719F05C968C91FACF0895CF925C
:10016000DF92EF92FF920F931F9396E0899FF00129
:100170001124E35AFD4F11A2278D30A12130310502
:1001800051F178F02230310509F451C023303105A6
:1001900009F452C01F910F91FF90EF90DF90CF9024
:1001A00008956623B9F361E070E00E948C002FB7D8
:1001B000F89480914D0290914E02A0914F02B0911F
:1001C00050022FBF8093B5029093B602A093B7025E
:1001D000B093B802DFCF9FB7F894C0904D02D09093
:1001E0004E02E0904F02F09050029FBF0091B50286
:1001F0001091B6022091B7023091B802C01AD10A0C
:10020000E20AF30A0091C7021091C80230E020E030
:100210000C151D052E053F0550F462E070E01F919E
:100220000F91FF90EF90DF90CF900C948C006111B4
:10023000B1CF63E070E0F3CF70E060E0F0CF0895FD
:100240000895AF92BF92CF92DF92EF92FF920F93F9
:100250001F93CF93DF936C017B018B01040F151F5C
:10026000EB015E01AE18BF08C017D10759F06991C4
:10027000D601ED91FC910190F081E02DC601099528
:10028000892B79F7C501DF91CF911F910F91FF90D5
:10029000EF90DF90CF90BF90AF900895833081F0C2
:1002A00028F4813099F08230A9F008958730A9F0C0
:1002B0008830C9F08430B1F4809180008F7D03C014
:1002C000809180008F7780938000089584B58F7728
:1002D00084BD089584B58F7DFBCF8091B0008F776A
:1002E0008093B00008958091B0008F7DF9CFCF93B7
:1002F000DF93282F30E0F901E255FF4F8491F90197
:10030000E656FF4FD491F901EA57FF4FC491CC2331
:10031000A1F081110E944E01EC2FF0E0EE0FFF1FC3
:10032000E458FF4FA591B491EC91ED2381E090E06A
:1003300009F480E0DF91CF91089580E090E0FACF5A
:10034000862F0C9477011F93CF93DF93282F30E0F3
:10035000F901E255FF4F8491F901E656FF4FD49120
:10036000F901EA57FF4FC491CC23A9F0162F811150
:100370000E944E01EC2FF0E0EE0FFF1FEE58FF4FF2
:10038000A591B4918FB7F894EC91111108C0D09554
:10039000DE23DC938FBFDF91CF911F910895DE2B79
:1003A000F8CF862F642F0C94A301CF93DF9390E0B6
:1003B000FC01E656FF4F24918A579F4FFC01849120
:1003C0008823C9F090E0880F991FFC01E859FF4F7E
:1003D000A591B491FC01EE58FF4FC591D4916111E4
:1003E0000DC09FB7F8948C91209582238C938881BF
:1003F000282328839FBFDF91CF910895623051F465
:100400009FB7F8943C91822F809583238C93E88149
:100410002E2BEFCF8FB7F894EC912E2B2C938FBF10
:10042000EACF862F642F0C94D5013FB7F8948091C2
:10043000F3019091F401A091F501B091F60126B578
:10044000A89B05C02F3F19F00196A11DB11D3FBF0C
:10045000BA2FA92F982F8827BC01CD01620F711DDB
:10046000811D911D42E0660F771F881F991F4A95D5
:10047000D1F708958F929F92AF92BF92CF92DF9261
:10048000EF92FF924B015C010E9415026B017C010F
:100490000E9415026C197D098E099F09683E734000
:1004A00081059105A8F321E0821A9108A108B108FD
:1004B00088EEC80E83E0D81EE11CF11C8114910463
:1004C000A104B10429F7FF90EF90DF90CF90BF9087
:1004D000AF909F908F9008952091CF01260F3327E2
:1004E000331F21323105ECF420912302FC0190E00E
:1004F00080E0243069F082E00895A091CF0121913D
:10050000AC0141555E4FA40FB52FB11D2C93019640
:10051000861798F38091CF01680F6093CF0180E038
:10052000089581E008951092230281E080932202D1
:100530001092FD0161E082E10E94A30161E083E18C
:100540000E94A301E9EBF0E080818E7F80838081AF
:100550008D7F808388E48093B80085E48093BC001D
:100560000895CF93DF9391E09093AE018823B9F083
:10057000C091B800D091BA008091BC008A7B809372
:10058000BC0060E082E10E94A30160E083E10E9480
:10059000A3010E949302D093BA00C093B800DF91E8
:1005A000CF910895CF92DF92EF92FF920F931F9316
:1005B000CF93DF93D0914C0281E0D13208F09CC000
:1005C000C0914B020E9415026B017C0180912302B5
:1005D00081116CC082E08093230281E0809322022B
:1005E0008FEF8093210210922002D0931F02ABE282
:1005F000B2E0EFEFF1E080E0D8138DC01092FE0181
:100600008091FE01CC0FC82BC093FE018091FD01AB
:10061000813009F084C01092FD010E9415026B0127
:100620007C018091FE018093BB0080912502909116
:100630002602A0912702B0912802892B8A2B8B2BAE
:10064000A1F00E941502009125021091260220912E
:100650002702309128026C197D098E099F0906171F
:1006600017072807390708F442C08091BC0083FDB2
:10067000D8CF85EC8093BC000E9415026B017C01F1
:1006800080912302823009F44CC0809121028F3F77
:1006900009F469C080912102803209F466C080911A
:1006A0002102803309F463C084E026C080912502D2
:1006B00090912602A0912702B0912802892B8A2BC3
:1006C0008B2B09F483CF0E94150200912502109113
:1006D000260220912702309128026C197D098E098B
:1006E0009F09061717072807390708F06FCF809171
:1006F00024020E94B10285E010922A0210924C025C
:1007000010922902DF91CF911F910F91FF90EF90EE
:10071000DF90CF9008959D9191938F5F6DCF85EE7F
:10072000A9CF8091250290912602A0912702B09135
:100730002802892B8A2B8B2B09F4A2CF0E94150249
:100740000091250210912602209127023091280263
:100750006C197D098E099F090617170728073907A5
:1007600008F08ECFC4CF80E0C7CF82E0C5CF83E052
:10077000C3CF0895E091FC018091FB01E81730F4AC
:10078000F0E0E257FE4F808190E008958FEF9FEFF9
:1007900008959091FC018091FB012FEF3FEF981796
:1007A00048F4E92FF0E0E257FE4F208130E09F5FF0
:1007B0009093FC01C90108958091FB019091FC0187
:1007C000891B990B0895CF92DF92EF92FF920F93BE
:1007D0001F93CF93DF937C01CB018A0120912902E3
:1007E000222389F0EB016B01C40ED51ECC15DD056B
:1007F00069F06991D701ED91FC910190F081E02DB4
:10080000C7010995F3CF642F0E946C02C801DF91E4
:10081000CF911F910F91FF90EF90DF90CF900895AF
:10082000CF93DF931F92CDB7DEB769832091290262
:100830002223F9F020914C02203258F021E030E0E0
:10084000FC013383228390E080E00F90DF91CF9111
:10085000089580912A02E82FF0E0E55DFD4F99812F
:1008600090838F5F80932A0280934C0281E090E016
:10087000ECCF61E0CE0101960E946C02F7CF682FA9
:1008800081E592E00C941004FC01248131E0309366
:10089000290220934B0210922A0210924C02838567
:1008A000862B90E00E943F040C94D202089590E0C1
:1008B00080E00895FC0101900020E9F73197AF0135
:1008C000481B590BBC0183EE92E00C94210185ED8D
:1008D0008093BC008091250290912602A09127026E
:1008E000B09128020796A11DB11D23E0B695A795EA
:1008F000979587952A95D1F72091BC0024FD03C0D8
:100900001092230208954091250250912602609191
:10091000270270912802452B462B472B69F300973D
:10092000A105B10541F025E32A95F1F700000197F3
:10093000A109B109E1CF809124020C94B1020F9377
:100940001F93CF938C01C62F0E9444046C2F6460C8
:10095000C8010E9444046C2F6B7FC8010E944404AC
:1009600083EC90E00197F1F7CF911F910F910895DB
:100970000F931F93CF93DF938C01D62FC42F607FEB
:10098000642B0E949F0480E1D89FB00111246C2B3E
:10099000C801DF91CF911F910F910C949F04CF93C9
:1009A000DF93CDB7DEB728970FB6F894DEBF0FBE42
:1009B000CDBF98E0E4E1F1E0DE01119601900D92E7
:1009C0009A95E1F79091EB02961708F46FEF262FB6
:1009D00030E0220F331F41E050E04C0F5D1F240F29
:1009E000351FF9016081680F606840E083EE92E096
:1009F00028960FB6F894DEBF0FBECDBFDF91CF9122
:100A00000C94B80440E061E083EE92E00E94B804E8
:100A10008BE39FE10197F1F7089541E00E94B8044C
:100A200081E090E008954F925F926F927F928F9253
:100A30009F92AF92BF92CF92DF92EF92FF920F936D
:100A40001F93CF93DF9320917C0230917D02213060
:100A5000310509F0F0C0833209F4EDC08A3209F0A3
:100A600075C18091CC029091CD02FC013191209111
:100A7000CE02AFECB2E044963111B6C02111BCC039
:100A80000E94020560E082E00E94CF048BE491E0C6
:100A90000E945A0461E086E00E94CF0488E591E05C
:100AA0000E945A04C1E0D9E4EE24EA9485EED82EDF
:100AB00095ECC92E2AE0F22E09E912E0C093290232
:100AC000D0934B0210922A0210924C028CEA90E0D2
:100AD0000E943F0482E090E00E943F0410922A02AC
:100AE00010924C028EEE90E00E943F040E94D202CF
:100AF00068EE73E080E090E00E943A02C093290221
:100B000010922A0210924C028AEA90E00E943F045E
:100B10000E94D2020E9415024B015C0180912302C7
:100B200081119AC0C0932302C0932202E092210255
:100B300010922002C0931F02C093FE018091FE011B
:100B400082698093FE018091FD01813009F0D7C058
:100B50001092FD010E9415024B015C018091FE0183
:100B60008093BB008091250290912602A0912702DC
:100B7000B0912802892B8A2B8B2BA1F00E941502A1
:100B80004090250250902602609027027090280223
:100B9000681979098A099B09461657066806790675
:100BA00008F47BC08091BC0083FDD8CFC092BC000C
:100BB0000E9415024B015C0180912302813009F4EF
:100BC000A1C080912002823008F0BEC08091200236
:100BD000AFEFB1E0EEE8F1E090E0981709F462C001
:100BE0002D9121939F5FF9CF321306C031912D9142
:100BF0008E179F0709F040CF0E94020560E083E056
:100C00000E94CF048DE591E00E945A0461E082E0E9
:100C10000E94CF0487E691E00E945A0461E083EECF
:100C200092E00E940D0586E591E00E945A04109220
:100C3000E2021092CE02DF91CF911F910F91FF90AF
:100C4000EF90DF90CF90BF90AF909F908F907F906C
:100C50006F905F904F9008958091250290912602A9
:100C6000A0912702B0912802892B8A2B8B2B09F4A3
:100C700055CF0E94150240902502509026026090A8
:100C8000270270902802681979098A099B0946167B
:100C900057066806790608F041CF809124020E9429
:100CA000B10280E01092FC018093FB0181E592E0AB
:100CB0000E94C9035C0190938D0180938C010E9476
:100CC000D202C0932902F0924B0210922A02109293
:100CD0004C02C5010E943F040E94D202EDE5F2E001
:100CE000848D833239F4878D90A1019719F481A105
:100CF0008111A1CF36960E171F0791F7DFCED09244
:100D0000BC0056CF8091250290912602A091270227
:100D1000B0912802892B8A2B8B2B09F44DCF0E948E
:100D20001502409025025090260260902702709094
:100D30002802681979098A099B0946165706680628
:100D4000790608F039CFA9CF82E042CFE091E202E4
:100D5000E33109F470CF91E09E0F9093E202F0E04E
:100D6000E453FD4F8283E92FF0E0E453FD4F1282FC
:100D700062CF1F920F920FB60F9211242F933F93C1
:100D80008F939F93AF93BF9380914D0290914E02AA
:100D9000A0914F02B09150023091F20123E0230F55
:100DA0002D3758F50196A11DB11D2093F2018093B6
:100DB0004D0290934E02A0934F02B0935002809147
:100DC000F3019091F401A091F501B091F601019623
:100DD000A11DB11D8093F3019093F401A093F5013F
:100DE000B093F601BF91AF919F918F913F912F9159
:100DF0000F900FBE0F901F90189526E8230F0296B4
:100E0000A11DB11DD2CF1F920F920FB60F921124C8
:100E10002F933F934F935F936F937F938F939F9302
:100E2000AF93BF93EF93FF938091B900887F803693
:100E300009F44AC0F0F5883209F4A7C018F58031EA
:100E400009F49BC0B8F4882309F4F9C0883009F488
:100E500094C0FF91EF91BF91AF919F918F917F913E
:100E60006F915F914F913F912F910F900FBE0F9017
:100E70001F901895883109F488C0803251F780930B
:100E8000210214C0803409F49DC040F48033B9F3CA
:100E90008833F9F68093210285ECB0C0803509F4DF
:100EA00085C0883509F496C0883499F60E94670495
:100EB000D0CF883909F48CC038F5883729F050F440
:100EC000883611F0803729F683E080932302109250
:100ED000F10157C0883809F47BC0803919F0803897
:100EE00009F0B7CF8091F101803208F071C0E09134
:100EF000F10181E08E0F8093F1018091BB00F0E061
:100F0000EF52FE4F80833DC0803B39F0E0F4803AE1
:100F100009F479C0883A09F09CCF84E080932302D9
:100F20001092D0011092CF01E091F701F091F801F9
:100F300009958091CF0181110FC081E08093CF018D
:100F40001092AF0109C0803C09F4A6CF883C09F497
:100F5000A3CF883B09F07DCFE091D00181E08E0FD7
:100F60008093D001F0E0E155FE4F80818093BB007B
:100F70009091D0018091CF0129C08091FE01809392
:100F8000BB0085EC8093BC0064CF909120028091DF
:100F90001F02981758F5E091200281E08E0F809390
:100FA0002002F0E0E150FE4F8081E9CFE091200285
:100FB00081E08E0F809320028091BB00F0E0E15031
:100FC000FE4F80839091200280911F029817C8F2F3
:100FD00085E8D8CFE091200281E08E0F8093200237
:100FE0008091BB00F0E0E150FE4F808380912202AF
:100FF00081115CCF81E08093FD0184EA8093BC0085
:101000001092230226CF85EC8093BC00109223021D
:101010008091F101803230F4E091F101F0E0EF5283
:10102000FE4F10826091F10170E0E091F901F091C2
:10103000FA0181ED91E009951092F1010ACF109229
:10104000210234CF109254021092530288EE93E0A2
:10105000A0E0B0E08093550290935602A09357020F
:10106000B093580280E291E0909352028093510233
:101070001092E6021092E5028CE391E09093E40274
:101080008093E30280E28093E70282E18093EC02A6
:1010900082E08093ED021092EE0280E791E090935F
:1010A000CD028093CC021092E2021092CE021092F6
:1010B0005F0210926302109262021092640282E355
:1010C00091E090935E0280935D02E9E7F2E0108286
:1010D000148213821582369682E0E53BF807B9F751
:1010E00087E491E09093C0028093BF0284E491E092
:1010F0009093C2028093C10284E08093C30283E094
:101100008093C40288E091E09093BE028093BD0278
:101110008AE090E09093C6028093C50284EF91E04C
:101120009093C8028093C7021092CB021092CA0219
:101130001092B9021092BA021092BB021092BC0235
:101140001092C9020895789484B5826084BD84B5F4
:10115000816084BD85B5826085BD85B5816085BDB2
:1011600080916E00816080936E001092810080916A
:1011700081008260809381008091810081608093F2
:101180008100809180008160809380008091B10017
:1011900084608093B1008091B00081608093B00042
:1011A00080917A00846080937A0080917A008260D6
:1011B00080937A0080917A00816080937A00809198
:1011C0007A00806880937A001092C1001092FC012E
:1011D0001092FB0110922A0210924C020E9493027C
:1011E0008FE191E09093F8018093F70180E291E024
:1011F0009093FA018093F9011092E8028091ED0238
:10120000823018F098E09093E8028093EB0262E35A
:1012100070E080E090E00E943A026091EE0283EE7E
:1012200092E00E94440468EE73E080E090E00E9447
:101230003A0260E383EE92E00E949F04CBE4D6E49E
:10124000CE010197F1F760E383EE92E00E949F04E4
:101250002197F1F760E383EE92E00E949F0483E51B
:1012600092E00197F1F760E283EE92E00E949F0422
:101270006091E802606240E083EE92E00E94B80470
:1012800084E08093E90240E06CE083EE92E00E940B
:10129000B8040E94020582E08093EA0240E066E022
:1012A00083EE92E00E94B80440E062E083EE92E0B8
:1012B0000E94B8048BE39FE10197F1F740E068E4F6
:1012C00083EE92E00E94B804C0E0D1E008E011E0B3
:1012D000699183EE92E00E940D050C171D07C1F77E
:1012E00083E195E09093CB028093CA0210922A0288
:1012F00010924C020E94930260E083E00E94CF04AF
:1013000087E791E00E945A0461E084E00E94CF04E4
:1013100082E891E00E945A04812C912C540183941C
:1013200044244A94542C50E0652E50E0752E51E030
:101330005093C9028FB7F89440914D0250914E02DC
:1013400060914F02709150028FBF8091B9029091CD
:10135000BA02A091BB02B091BC02481B590B6A0BA8
:101360007B0B8091C5029091C602B0E0A0E0C0E086
:1013700084179507A607B70740F01092C9026114B9
:101380007104A9F20E940000D2CF8091C302C81755
:1013900060F4E091BF02F091C002EC0FF11D62E039
:1013A00080810E94D501CF5FF0CF312C8091C402A3
:1013B000381608F05FC0032D10E0E091C102F091F3
:1013C000C202E00FF11F61E080810E94D501E0912F
:1013D000C102F091C202E00FF11F60E080810E9423
:1013E000A301D501C401032C04C0880F991FAA1FB3
:1013F000BB1F0A94D2F76C017C01E094F094212C7D
:101400008091C3022816F8F4C22DD0E0E091BF020B
:10141000F091C002EC0FFD1F80810E94770124969D
:10142000CC0FDD1FC35ADD4F892B41F48881998190
:101430008C299D29998388832394E2CF888199817F
:101440008E219F21F7CFE091C102F091C202E00FFF
:10145000F11F61E080810E94A3018091C1029091FF
:10146000C202080F191F60E0F80180810E94D501B7
:1014700033949CCF0DE512E0E8018F8D98A1892B64
:1014800021F41C8E5E8E4D8E19A22696F2E0C9398B
:10149000DF0799F7D12C8091C302D81608F053C00A
:1014A000C12CED2CF12CEE0CFF1CC7018B599D4F6C
:1014B0007C012091C402C21608F043C0F70160818C
:1014C00071810C2C02C0769567950A94E2F7D29E42
:1014D000900111242C0D311DEDE5F2E080E0458DE9
:1014E000568D2417350709F45BC08F5F36968A3016
:1014F000B1F760FF24C0EDE5F2E090E080E0448DBC
:10150000411118C0E091BD02F091BE02E20FF31F3D
:10151000408156E0589FF001599FF00D1124E35A85
:10152000FD4F448F368F258F10A2178E61E00E94E9
:10153000AF0005C0019636968A30910501F7C39435
:10154000B8CFD394A8CF80E0F80191A19111892F51
:101550000A5F1F4FC017D107B9F79FB7F8944091A2
:101560004D0250914E0260914F02709150029FBF08
:101570004093B9025093BA026093BB027093BC02CD
:10158000882309F4FACE80917E02882309F4F5CEEF
:1015900080917C0290917D02019709F0EECEEFCE12
:1015A0006170C5CFEE0FFF1F0590F491E02D0994F7
:0415B000F894FFCFDD
:1015B4000F001919151513133132333435363738F2
:1015C400392A3023000040001400540000000000B9
:1015D4001004E3035704B903DC03C903BA0300008E
:1015E40000001102D101A001000000000D0521013D
:1015F400570456040D0C0B0A0908074249454E5678
:10160400454E49444F204100434153410045525205
:101614004F5220454E2000434F4E545241534500F3
:101624003230323131330043415341204143594533
:0C1634003100412D4731332D53320000AE
:00000001FF
