:100000000C945E000C9486000C9486000C94860080
:100010000C9486000C9486000C9486000C94860048
:100020000C9486000C9486000C9486000C94860038
:100030000C9486000C9486000C9486000C94860028
:100040000C949E040C9486000C946C040C9446044E
:100050000C9486000C9486000C9486000C94860008
:100060000C94E8040C9486000000000800020100D3
:100070000003040700000000000000000000000072
:10008000250028002B0000000000240027002A0083
:10009000040404040404040402020202020203032E
:1000A0000303030301020408102040800102040836
:1000B00010200102040810200706F50711241FBEB6
:1000C000CFEFD8E0DEBFCDBF22E0A8E3B1E001C0B2
:1000D0001D92A63AB207E1F711E0A0E0B1E0E4E733
:1000E000F4E102C005900D92A833B107D9F710E0F2
:1000F000CDE5D0E004C02197FE010E943508CC3543
:10010000D107C9F70E9453070C942D0A0C940000E4
:1001100090E0FC01EC55FF4F249180579F4FFC016C
:100120008491882399F090E0880F991FFC01EA5789
:10013000FF4FA591B491FC01E458FF4F8591949134
:100140008FB7F894EC91E22BEC938FBF089508954C
:10015000CF93DF93AC01E091D901F091DA013097B0
:10016000F1F09091D8018091D7019817C0F090E0FC
:10017000292F30E02617370754F4D901A85CBE4F69
:10018000240F351FE90128812C939F5FF1CF109236
:10019000D8016093D701CB01DF91CF910994DF9112
:1001A000CF910895AF92BF92CF92DF92EF92FF92DC
:1001B0000F931F93CF93DF936C017B018B01040F8F
:1001C000151FEB015E01AE18BF08C017D10759F02B
:1001D0006991D601ED91FC910190F081E02DC6016D
:1001E0000995892B79F7C501DF91CF911F910F9167
:1001F000FF90EF90DF90CF90BF90AF900895FC01FB
:10020000538D448D252F30E0842F90E0821B930B7B
:10021000541710F0CF96089501970895FC01918D21
:10022000828D981761F0A28DAE0FBF2FB11D5D9624
:100230008C91928D9F5F9F73928F90E008958FEFC6
:100240009FEF0895FC01918D828D981731F0828D7A
:10025000E80FF11D858D90E008958FEF9FEF0895D1
:10026000FC01918D228D892F90E0805C9F4F821B35
:1002700091098F73992708958BED91E00E943001C9
:1002800021E0892B09F420E0822F089580E090E09E
:10029000892B29F00E943C0181110C9400000895E3
:1002A000FC01A48DA80FB92FB11DA35ABF4F2C91EB
:1002B000848D90E001968F739927848FA689B789E2
:1002C0002C93A089B1898C91837080648C93938DD9
:1002D000848D981306C00288F389E02D80818F7D7C
:1002E00080830895EF92FF920F931F93CF93DF9334
:1002F000EC0181E0888F9B8D8C8D98131AC0E88962
:10030000F989808185FF15C09FB7F894EE89FF8930
:100310006083E889F98980818370806480839FBFCE
:1003200081E090E0DF91CF911F910F91FF90EF90CE
:100330000895F62E0B8D10E00F5F1F4F0F731127DE
:10034000E02E8C8D8E110CC00FB607FCFACFE88919
:10035000F989808185FFF5CFCE010E945001F1CF50
:10036000EB8DEC0FFD2FF11DE35AFF4FF0829FB78D
:10037000F8940B8FEA89FB8980818062CFCFCF937D
:10038000DF93EC01888D8823B9F0AA89BB89E889BD
:10039000F9898C9185FD03C0808186FD0DC00FB663
:1003A00007FCF7CF8C9185FFF2CF808185FFEDCFE1
:1003B000CE010E945001E9CFDF91CF91089590E0E6
:1003C000FC01E859FF4F2491FC01EC55FF4F34919B
:1003D000FC01E057FF4FE491EE23C9F0222339F0EE
:1003E000233001F1A8F4213019F1223029F1F0E095
:1003F000EE0FFF1FE458FF4FA591B4918FB7F8940B
:10040000EC91611126C030953E233C938FBF089537
:100410002730A9F02830C9F0243049F780918000B6
:100420008F7D03C0809180008F7780938000DFCF25
:1004300084B58F7784BDDBCF84B58F7DFBCF809172
:10044000B0008F778093B000D2CF8091B0008F7DC5
:10045000F9CF3E2BDACF20917E01260F3327331FB1
:1004600021323105ECF42091A201FC0190E080E002
:10047000243069F082E00895A0917E012191AC01C1
:10048000425A5E4FA40FB52FB11D2C9301968617CB
:1004900098F380917E01680F60937E0180E008955B
:1004A00081E008951092A20181E08093A40110924E
:1004B000A30161E082E10E94DF0161E083E10E942B
:1004C000DF01E9EBF0E080818E7F808380818D7F8A
:1004D000808388E48093B80085E48093BC0008950D
:1004E0000895E091D8018091D701E81730F4F0E049
:1004F000E85CFE4F808190E008958FEF9FEF0895B4
:100500009091D8018091D7012FEF3FEF981748F4D1
:10051000E92FF0E0E85CFE4F208130E09F5F909390
:10052000D801C90108958091D7019091D801891B04
:10053000990B0895CF93DF93CB01EA01642F0E94BA
:100540002B02CE01DF91CF910895CF93DF931F92BD
:10055000CDB7DEB7698361E0CE0101960E942B0220
:1005600081E090E00F90DF91CF910895089590E0A1
:1005700080E00895CF93DF93EC0160E08E810E94CC
:10058000DF0161E08E810E94DF0160E08E810E94C8
:10059000DF018BE891E00197F1F7DF91CF910895AA
:1005A000CF92DF92EF92FF920F931F93CF93DF933F
:1005B0006C017C0187E0E80EF11CD0E0C0E0062F62
:1005C00010E0B8010C2E02C0759567950A94E2F709
:1005D0006170F70181917F010E94DF012196C43093
:1005E000D10579F7C601DF91CF911F910F91FF904F
:1005F000EF90DF90CF900C94BA02CF92DF92EF92FF
:10060000FF920F931F93CF93DF93EC01F62E642F8D
:100610008C810E94DF018D818F3F19F060E00E9484
:10062000DF010F2D10E08F8584FF25C06E0187E06C
:10063000C80ED11CF12CE12CB8010E2C02C075950E
:1006400067950A94E2F76170F60181916F010E944B
:10065000DF01FFEFEF1AFF0A88E0E816F10461F707
:10066000CE01DF91CF911F910F91FF90EF90DF901E
:10067000CF900C94BA02B80184E0759567958A957D
:10068000E1F7CE010E94D0026F2DCE01DF91CF9114
:100690001F910F91FF90EF90DF90CF900C94D002BC
:1006A00040E0682F8AE892E00C94FD0241E00E944D
:1006B000FD0281E090E00895CF93DF93EC018091FB
:1006C000840290918502009759F020918602309122
:1006D00087022C173D0720F081E0DF91CF9108952C
:1006E000BE016F5F7F4F0E946009009789F0909371
:1006F000850280938402D0938702C0938602209162
:10070000880230918902232B39F7FC011082E4CF53
:1007100080E0E3CFCF92DF92EF92FF920F931F938F
:10072000CF93DF9300D0CDB7DEB77C018BE3C82E2B
:100730008FE1D82E1E141F0474F588E792E00E9402
:10074000800289831A8200918802109189020F5FCA
:100750001F4FC8010E945C03882399F020918402F6
:10076000309185028091880290918902BE016F5F6D
:100770007F4F820F931F0E94260A109389020093D5
:10078000880281E00E945003C6010197F1F781E0E1
:10079000E81AF108CFCFE1E080919D028111E0E0FD
:1007A000E195F0E0E657FD4F84898C5F80680E94F8
:1007B00050034091880250918902609184027091A7
:1007C00085028AE892E00F900F90DF91CF911F9100
:1007D0000F91FF90EF90DF90CF900C94D200CF93C9
:1007E000DF9385ED8093BC0080915A0190915B016D
:1007F000A0915C01B0915D010796A11DB11D23E0A0
:10080000B695A795979587952A95D1F72091BC0025
:1008100024FD03C01092A20136C040915A015091AC
:100820005B0160915C0170915D01452B462B472B6C
:1008300069F30097A105B10541F025E32A95F1F789
:1008400000000197A109B109E1CF8091590191E020
:10085000909358018823B9F0C091B800D091BA00A4
:100860008091BC008A7B8093BC0060E082E10E94A2
:10087000DF0160E083E10E94DF010E945202D09319
:10088000BA00C093B800DF91CF9108951F920F92E4
:100890000FB60F9211242F933F934F935F936F9353
:1008A0007F938F939F93AF93BF93EF93FF938BEDC2
:1008B00091E00E945001FF91EF91BF91AF919F9104
:1008C0008F917F916F915F914F913F912F910F90F9
:1008D0000FBE0F901F9018951F920F920FB60F9298
:1008E00011242F938F939F93EF93FF93E091EB014C
:1008F000F091EC018081E091F101F091F20182FD33
:100900001BC090818091F4018F5F8F732091F5015E
:10091000821741F0E091F401F0E0E552FE4F958F2F
:100920008093F401FF91EF919F918F912F910F9000
:100930000FBE0F901F9018958081F4CF1F920F92D9
:100940000FB60F9211242F933F938F939F93AF93E2
:10095000BF938091CD019091CE01A091CF01B09134
:10096000D0013091CC0123E0230F2D3758F50196AB
:10097000A11DB11D2093CC018093CD019093CE0198
:10098000A093CF01B093D0018091C8019091C9018B
:10099000A091CA01B091CB010196A11DB11D809318
:1009A000C8019093C901A093CA01B093CB01BF9134
:1009B000AF919F918F913F912F910F900FBE0F900C
:1009C0001F90189526E8230F0296A11DB11DD2CFC6
:1009D0001F920F920FB60F9211242F933F934F93B4
:1009E0005F936F937F938F939F93AF93BF93EF9397
:1009F000FF938091B900887F803609F44AC0F0F5F2
:100A0000883209F4A7C018F5803109F49BC0B8F406
:100A1000882309F4F9C0883009F494C0FF91EF915C
:100A2000BF91AF919F918F917F916F915F914F9106
:100A30003F912F910F900FBE0F901F901895883106
:100A400009F488C0803251F78093A10114C080342A
:100A500009F49DC040F48033B9F38833F9F68093EC
:100A6000A10185ECB0C0803509F485C0883509F452
:100A700096C0883499F60E94EF03D0CF883909F4E4
:100A80008CC038F5883729F050F4883611F080375B
:100A900029F683E08093A2011092A00157C0883804
:100AA00009F47BC0803919F0803809F0B7CF809104
:100AB000A001803208F071C0E091A00181E08E0FAA
:100AC0008093A0018091BB00F0E0E058FE4F80834E
:100AD0003DC0803B39F0E0F4803A09F479C0883AAF
:100AE00009F09CCF84E08093A20110927F011092C4
:100AF0007E01E091D301F091D401099580917E01AE
:100B000081110FC081E080937E0110925E0109C0C7
:100B1000803C09F4A6CF883C09F4A3CF883B09F0B8
:100B20007DCFE0917F0181E08E0F80937F01F0E027
:100B3000E25AFE4F80818093BB0090917F018091AB
:100B40007E0129C08091C7018093BB0085EC809312
:100B5000BC0064CF9091C6018091C501981758F5EB
:100B6000E091C60181E08E0F8093C601F0E0EB5565
:100B7000FE4F8081E9CFE091C60181E08E0F809326
:100B8000C6018091BB00F0E0EB55FE4F8083909151
:100B9000C6018091C5019817C8F285E8D8CFE091C9
:100BA000C60181E08E0F8093C6018091BB00F0E00A
:100BB000EB55FE4F80838091A40181115CCF81E0D1
:100BC0008093A30184EA8093BC001092A20126CFF7
:100BD00085EC8093BC001092A2018091A00180322C
:100BE00030F4E091A001F0E0E058FE4F10826091F7
:100BF000A00170E0E091D101F091D20180E891E094
:100C000009951092A0010ACF1092A10134CFCF9381
:100C1000DF931092DE011092DD0188EE93E0A0E0F8
:100C2000B0E08093DF019093E001A093E101B093E5
:100C3000E2012AE031E03093DC012093DB0125EC76
:100C400030E03093E8012093E70124EC30E030936A
:100C5000EA012093E90120EC30E03093EC0120938D
:100C6000EB0121EC30E03093EE012093ED0122EC1A
:100C700030E03093F0012093EF0126EC30E0309328
:100C8000F2012093F1011092F4011092F5011092FB
:100C9000F6011092F70110927B0210927A02809373
:100CA0007C0290937D02A0937E02B0937F028CE140
:100CB00091E0909379028093780210928D021092C5
:100CC0008C028EE291E090938B0280938A0287E0FF
:100CD00080938E028FEF80938F0286E08093900244
:100CE00085E08093910284E08093920283E0809378
:100CF000930282E0809394021092950210929602E1
:100D000010929702109298021092990281E08093BB
:100D10009D0210929E0280E480939F0280E1809366
:100D2000A00280E58093A10287E00E948800809164
:100D30008F028F3F11F00E948800809190020E94E4
:100D40008800CAE8D2E09E012A5832408091990278
:100D500084FD0AC084E090E02196281739073CF40E
:100D60008E810E948800EFCF88E090E0F5CF8BE382
:100D70009DE00197F1F760E080918E020E94DF0113
:100D800060E0809190020E94DF0180918F028F3F8E
:100D900019F060E00E94DF018091990284FD62C039
:100DA00063E08AE892E00E94D002CBE4D6E4CE0170
:100DB0000197F1F763E08AE892E00E94D002219760
:100DC000F1F763E08AE892E00E94D00283E592E0C6
:100DD0000197F1F762E08AE892E00E94D0028091E8
:100DE000990280620E94500384E080939A028CE012
:100DF0000E94500381E00E9450038BE39FE1019722
:100E0000F1F782E080939B0286E00E9450031092EB
:100E1000850210928402109287021092860210922C
:100E200089021092880290E080E00E945C03209189
:100E300084023091850281112BC02115310519F0F2
:100E4000C9010E94D7081092850210928402109264
:100E50008902109288021092870210928602DF9116
:100E6000CF91089580620E9450038BE496E401972D
:100E7000F1F78091990280620E94500383E592E02D
:100E80000197F1F78091990280620E945003A7CFE9
:100E9000109289021092880266E371E0C901DF9125
:100EA000CF910C94260A789484B5826084BD84B571
:100EB000816084BD85B5826085BD85B5816085BD55
:100EC00080916E00816080936E001092810080910D
:100ED0008100826080938100809181008160809395
:100EE0008100809180008160809380008091B100BA
:100EF00084608093B1008091B00081608093B000E5
:100F000080917A00846080937A0080917A00826078
:100F100080937A0080917A00816080937A0080913A
:100F20007A00806880937A001092C1001092D801F4
:100F30001092D7011092D6011092D5010E94520250
:100F400087EA90E09093D4018093D30188EA90E0FF
:100F50009093D2018093D10184E18093BA008AE812
:100F600093E09093DA018093D901E091EB01F09145
:100F7000EC0182E08083E091E701F091E8011082CA
:100F8000E091E901F091EA018FEC80831092F30186
:100F9000E091EF01F091F00186E08083E091ED01B6
:100FA000F091EE01808180618083E091ED01F0910C
:100FB000EE01808188608083E091ED01F091EE0187
:100FC000808180688083E091ED01F091EE01808165
:100FD0008F7D8083C0E0D0E02097F1F30E943C0138
:100FE0008823D1F30E940000F7CF80918402909172
:100FF0008502009711F00C94D70808952F923F9224
:101000004F925F926F927F928F929F92AF92BF9218
:10101000CF92DF92EF92FF920F931F93CF93DF93C4
:10102000CDB7DEB7CA1BDB0B0FB6F894DEBF0FBE21
:10103000CDBF09942A88398848885F846E847D846E
:101040008C849B84AA84B984C884DF80EE80FD8070
:101050000C811B81AA81B981CE0FD11D0FB6F894E6
:10106000DEBF0FBECDBFED010895EE0FFF1F05904F
:10107000F491E02D09940F931F93CF93DF93823067
:10108000910510F482E090E0E091A402F091A502B5
:1010900030E020E0B0E0A0E0309799F42115310570
:1010A00009F44AC0281B390B24303105D8F58A8150
:1010B0009B816115710589F1FB0193838283FE0198
:1010C00011C0408151810281138148175907E0F016
:1010D0004817590799F4109761F012960C931297DC
:1010E00013961C933296CF01DF91CF911F910F91F0
:1010F00008950093A4021093A502F4CF21153105A1
:1011000051F04217530738F0A901DB019A01BD01E4
:10111000DF01F801C1CFEF01F9CF9093A5028093D1
:10112000A402CDCFFE01E20FF31F819391932250D1
:10113000310939832883D7CF2091A2023091A302AD
:10114000232B41F420910201309103013093A3023B
:101150002093A20220910001309101012115310557
:1011600041F42DB73EB74091040150910501241B75
:10117000350BE091A202F091A302E217F307A0F46D
:101180002E1B3F0B2817390778F0AC014E5F5F4FDD
:101190002417350748F04E0F5F1F5093A30240936A
:1011A000A202819391939FCFF0E0E0E09CCFCF9398
:1011B000DF930097E9F0FC01329713821282A0912D
:1011C000A402B091A502ED0130E020E01097A1F457
:1011D00020813181820F931F2091A2023091A302BE
:1011E0002817390709F061C0F093A302E093A20227
:1011F000DF91CF910895EA01CE17DF07E8F54A8124
:101200005B819E0141155105B1F7E901FB83EA833A
:1012100049915991C40FD51FEC17FD0761F48081E6
:1012200091810296840F951FE901998388838281B9
:1012300093819B838A83F0E0E0E012968D919C91EC
:1012400013970097B9F52D913C911197CD01029616
:10125000820F931F2091A2023091A3022817390711
:1012600039F6309751F51092A5021092A402B0936E
:10127000A302A093A202BCCFD383C2834081518139
:10128000840F951FC817D90761F44E5F5F4F88819F
:101290009981480F591F518340838A819B81938391
:1012A00082832115310509F0B0CFF093A502E093B8
:1012B000A4029ECFFD01DC01C0CF13821282D7CFE2
:1012C000B0E0A0E0E6E6F9E00C9400088C0100979D
:1012D00051F4CB010E943B088C01C801CDB7DEB7A9
:1012E000E0E10C941C08FC01E60FF71F9C01225062
:1012F0003109E217F30708F49DC0D901CD91DC91C3
:101300001197C617D70798F0C530D10530F3CE0135
:1013100004978617970708F3C61BD70B2297C1932C
:10132000D1936D937C93CF010E94D708D6CF5B01F8
:10133000AC1ABD0A4C018C0E9D1EA091A402B09166
:10134000A502512C412CF12CE12C109731F5809104
:10135000A2029091A3028815990509F05CC0461677
:10136000570608F058C08091000190910101009744
:1013700041F48DB79EB74091040150910501841B43
:10138000950BE817F90708F055C0F093A302E09316
:10139000A202F90171836083A0CF8D919C91119776
:1013A00012966C90129713967C901397A815B90516
:1013B00059F56C0142E0C40ED11CCA14DB0420F1C3
:1013C000AC014A195B09DA011296159780F0628226
:1013D000738251834083D9016D937C93E114F104AE
:1013E00071F0D7011396FC93EE93129776CF229665
:1013F0008C0F9D1FF90191838083F301EFCFF09350
:10140000A502E093A40269CF4816590608F42C01FE
:101410007D01D3019ACFCB010E943B087C0100974C
:1014200049F0AE01B8010E941D0AC8010E94D70808
:10143000870153CF10E000E050CFFB01DC0102C078
:1014400001900D9241505040D8F70895FB01DC0106
:1014500001900D920020E1F7089510E0CDE5D0E075
:1014600004C0FE010E9435082196CE35D107C9F788
:04147000F894FFCF1E
:101474000000A6028000000000007201D200FF00FC
:10148400BF0130010E01220100000000A5029A02F2
:10149400B70270029302800271020000000056033A
:0814A400D200B702B6020000FD
:00000001FF
