:020000040000FA
:100000000C945D000C9485000C9485000C94850084
:100010000C9485000C9485000C9485000C9485004C
:100020000C9485000C9485000C9485000C9485003C
:100030000C9485000C9485000C9485000C9485002C
:100040000C9423040C9485000C94F1030C94CB03C2
:100050000C9485000C9485000C9485000C9485000C
:100060000C946D040C94850000000008000201004F
:100070000003040700000000000000000000000072
:10008000250028002B0000000000240027002A0083
:10009000040404040404040402020202020203032E
:1000A0000303030301020408102040800102040836
:1000B00010200102040810208C0511241FBECFEF70
:1000C000D8E0DEBFCDBF11E0A0E0B1E0E6ECFEE09D
:1000D00002C005900D92A033B107D9F722E0A0E34A
:1000E000B1E001C01D92A439B207E1F710E0CDE5FF
:1000F000D0E004C02197FE010E945B07CC35D107F8
:10010000C9F70E94B9060C9461070C94000090E0B6
:10011000FC01EC55FF4F249180579F4FFC018491C7
:10012000882399F090E0880F991FFC01EA57FF4F50
:10013000A591B491FC01E458FF4F859194918FB73C
:10014000F894EC91E22BEC938FBF08950895CF9330
:10015000DF93AC01E091D101F091D2013097F1F041
:100160009091D0018091CF019817C0F090E0292F95
:1001700030E02617370754F4D901A05DBE4F240F95
:10018000351FE90128812C939F5FF1CF1092D00198
:100190006093CF01CB01DF91CF910994DF91CF9193
:1001A0000895AF92BF92CF92DF92EF92FF920F939A
:1001B0001F93CF93DF936C017B018B01040F151FFD
:1001C000EB015E01AE18BF08C017D10759F0699165
:1001D000D601ED91FC910190F081E02DC6010995C9
:1001E000892B79F7C501DF91CF911F910F91FF9076
:1001F000EF90DF90CF90BF90AF900895FC01538DAA
:10020000448D252F30E0842F90E0821B930B5417F0
:1002100010F0CF96089501970895FC01918D828D7D
:10022000981761F0A28DAE0FBF2FB11D5D968C9116
:10023000928D9F5F9F73928F90E008958FEF9FEF55
:100240000895FC01918D828D981731F0828DE80F11
:10025000F11D858D90E008958FEF9FEF0895FC01CB
:10026000918D228D892F90E0805C9F4F821B910998
:100270008F739927089583ED91E00E942F0121E06B
:10028000892B09F420E0822F089580E090E0892BEB
:1002900029F00E943B0181110C9400000895FC019B
:1002A000A48DA80FB92FB11DA35ABF4F2C91848DD7
:1002B00090E001968F739927848FA689B7892C9334
:1002C000A089B1898C91837080648C93938D848D87
:1002D000981306C00288F389E02D80818F7D80838A
:1002E0000895EF92FF920F931F93CF93DF93EC014A
:1002F00081E0888F9B8D8C8D98131AC0E889F989CD
:10030000808185FF15C09FB7F894EE89FF896083CF
:10031000E889F98980818370806480839FBF81E050
:1003200090E0DF91CF911F910F91FF90EF90089592
:10033000F62E0B8D10E00F5F1F4F0F731127E02E6D
:100340008C8D8E110CC00FB607FCFACFE889F989A5
:10035000808185FFF5CFCE010E944F01F1CFEB8D5B
:10036000EC0FFD2FF11DE35AFF4FF0829FB7F89479
:100370000B8FEA89FB8980818062CFCFCF93DF9397
:10038000EC01888D8823B9F0AA89BB89E889F989AD
:100390008C9185FD03C0808186FD0DC00FB607FCE2
:1003A000F7CF8C9185FFF2CF808185FFEDCFCE0115
:1003B0000E944F01E9CFDF91CF91089590E0FC01B9
:1003C000E859FF4F2491FC01EC55FF4F3491FC019B
:1003D000E057FF4FE491EE23C9F0222339F0233098
:1003E00001F1A8F4213019F1223029F1F0E0EE0FEB
:1003F000FF1FE458FF4FA591B4918FB7F894EC918B
:10040000611126C030953E233C938FBF089527305D
:10041000A9F02830C9F0243049F7809180008F7D01
:1004200003C0809180008F7780938000DFCF84B5F8
:100430008F7784BDDBCF84B58F7DFBCF8091B000FB
:100440008F778093B000D2CF8091B0008F7DF9CFAD
:100450003E2BDACF20917601260F3327331F21322E
:100460003105ECF420919A01FC0190E080E0243009
:1004700069F082E00895A09176012191AC014A5A79
:100480005E4FA40FB52FB11D2C930196861798F3DC
:1004900080917601680F6093760180E0089581E095
:1004A000089510929A0181E080939C0110929B0123
:1004B00061E082E10E94DE0161E083E10E94DE01F1
:1004C000E9EBF0E080818E7F808380818D7F808367
:1004D00088E48093B80085E48093BC000895089573
:1004E000E091D0018091CF01E81730F4F0E0E05DB9
:1004F000FE4F808190E008958FEF9FEF08959091D7
:10050000D0018091CF012FEF3FEF981748F4E92FEA
:10051000F0E0E05DFE4F208130E09F5F9093D001DE
:10052000C90108958091CF019091D001891B990B49
:100530000895CF93DF93CB01EA01642F0E942A0232
:10054000CE01DF91CF910895CF93DF931F92CDB766
:10055000DEB7698361E0CE0101960E942A0281E044
:1005600090E00F90DF91CF910895089590E080E0A2
:100570000895CF93DF9385ED8093BC008091520165
:1005800090915301A0915401B09155010796A11D7E
:10059000B11D23E0B695A795979587952A95D1F734
:1005A0002091BC0024FD03C010929A0136C04091F6
:1005B0005201509153016091540170915501452BA6
:1005C000462B472B69F30097A105B10541F025E3C0
:1005D0002A95F1F700000197A109B109E1CF8091B7
:1005E000510191E0909350018823B9F0C091B80077
:1005F000D091BA008091BC008A7B8093BC0060E0FF
:1006000082E10E94DE0160E083E10E94DE010E943F
:100610005102D093BA00C093B800DF91CF910895F2
:10062000CF93DF93EC0160E08E810E94DE0161E0F8
:100630008E810E94DE0160E08E810E94DE018BE8E7
:1006400091E00197F1F7DF91CF910895CF92DF927A
:10065000EF92FF920F931F93CF93DF936C017C0176
:1006600087E0E80EF11CD0E0C0E0062F10E0B801F2
:100670000C2E02C0759567950A94E2F76170F70138
:1006800081917F010E94DE012196C430D10579F766
:10069000C601DF91CF911F910F91FF90EF90DF90F6
:1006A000CF900C941003CF92DF92EF92FF920F93B2
:1006B0001F93CF93DF93EC01F62E642F8C810E9461
:1006C000DE018D818F3F19F060E00E94DE010F2D69
:1006D00010E08F8584FF25C06E0187E0C80ED11C15
:1006E000F12CE12CB8010E2C02C0759567950A9487
:1006F000E2F76170F60181916F010E94DE01FFEF68
:10070000EF1AFF0A88E0E816F10461F7CE01DF91E5
:10071000CF911F910F91FF90EF90DF90CF900C94AD
:100720001003B80184E0759567958A95E1F7CE01CD
:100730000E9426036F2DCE01DF91CF911F910F9163
:10074000FF90EF90DF90CF900C94260341E00E9441
:10075000530381E090E00895CF93DF93EC0140E0F4
:1007600061E08CE792E00E9453038BE39FE10197E5
:10077000F1F71C161D0664F480E792E00E947F02E8
:1007800041E0682F8CE792E00E9453032197F1CF5C
:10079000DF91CF9108951F920F920FB60F921124FF
:1007A0002F933F934F935F936F937F938F939F9379
:1007B000AF93BF93EF93FF9383ED91E00E944F01BE
:1007C000FF91EF91BF91AF919F918F917F916F9129
:1007D0005F914F913F912F910F900FBE0F901F90FF
:1007E00018951F920F920FB60F9211242F938F938B
:1007F0009F93EF93FF93E091E301F091E4018081F7
:10080000E091E901F091EA0182FD1BC090818091A5
:10081000EC018F5F8F732091ED01821741F0E09121
:10082000EC01F0E0ED52FE4F958F8093EC01FF91CB
:10083000EF919F918F912F910F900FBE0F901F906E
:1008400018958081F4CF1F920F920FB60F9211244A
:100850002F933F938F939F93AF93BF938091C50145
:100860009091C601A091C701B091C8013091C40117
:1008700023E0230F2D3758F50196A11DB11D2093BC
:10088000C4018093C5019093C601A093C701B093A2
:10089000C8018091C0019091C101A091C201B091A5
:1008A000C3010196A11DB11D8093C0019093C101A8
:1008B000A093C201B093C301BF91AF919F918F915B
:1008C0003F912F910F900FBE0F901F90189526E823
:1008D000230F0296A11DB11DD2CF1F920F920FB60A
:1008E0000F9211242F933F934F935F936F937F93B6
:1008F0008F939F93AF93BF93EF93FF938091B90032
:10090000887F803609F44AC0F0F5883209F4A7C020
:1009100018F5803109F49BC0B8F4882309F4F9C0B4
:10092000883009F494C0FF91EF91BF91AF919F91EE
:100930008F917F916F915F914F913F912F910F9088
:100940000FBE0F901F901895883109F488C080322F
:1009500051F78093990114C0803409F49DC040F48C
:100960008033B9F38833F9F68093990185ECB0C0F0
:10097000803509F485C0883509F496C0883499F625
:100980000E94B902D0CF883909F48CC038F5883775
:1009900029F050F4883611F0803729F683E08093EF
:1009A0009A011092980157C0883809F47BC08039A9
:1009B00019F0803809F0B7CF80919801803208F0A3
:1009C00071C0E091980181E08E0F80939801809131
:1009D000BB00F0E0E858FE4F80833DC0803B39F01B
:1009E000E0F4803A09F479C0883A09F09CCF84E0B9
:1009F00080939A011092770110927601E091CB01D9
:100A0000F091CC0109958091760181110FC081E0B0
:100A1000809376011092560109C0803C09F4A6CF5C
:100A2000883C09F4A3CF883B09F07DCFE0917701A2
:100A300081E08E0F80937701F0E0EA5AFE4F8081CB
:100A40008093BB00909177018091760129C08091BD
:100A5000BF018093BB0085EC8093BC0064CF909174
:100A6000BE018091BD01981758F5E091BE0181E06B
:100A70008E0F8093BE01F0E0E356FE4F8081E9CFF8
:100A8000E091BE0181E08E0F8093BE018091BB009A
:100A9000F0E0E356FE4F80839091BE018091BD014E
:100AA0009817C8F285E8D8CFE091BE0181E08E0F9B
:100AB0008093BE018091BB00F0E0E356FE4F80833F
:100AC00080919C0181115CCF81E080939B0184EA3D
:100AD0008093BC0010929A0126CF85EC8093BC00D5
:100AE00010929A0180919801803230F4E09198013F
:100AF000F0E0E858FE4F10826091980170E0E091BC
:100B0000C901F091CA0188E791E009951092980116
:100B10000ACF1092990134CFCF93DF931092D60170
:100B20001092D50188EE93E0A0E0B0E08093D70169
:100B30009093D801A093D901B093DA0124E031E079
:100B40003093D4012093D30125EC30E03093E001C1
:100B50002093DF0124EC30E03093E2012093E101A7
:100B600020EC30E03093E4012093E30121EC30E00D
:100B70003093E6012093E50122EC30E03093E80168
:100B80002093E70126EC30E03093EA012093E9015D
:100B90001092EC011092ED011092EE011092EF0113
:100BA00010927302109272028093740290937502F5
:100BB000A0937602B093770286E191E09093710260
:100BC0008093700210927F0210927E0288E291E080
:100BD00090937D0280937C028DE0809380028FEF62
:100BE000809381028CE0809382028BE08093830269
:100BF0008AE08093840289E08093850288E0809374
:100C00008602109287021092880210928902109236
:100C10008A0210928B0281E080938F0210929002E0
:100C200080E48093910280E18093920280E580933A
:100C300093028DE00E948700809181028F3F11F026
:100C40000E948700809182020E948700CCE7D2E058
:100C50009E012C57324080918B0284FD0AC084E0B3
:100C600090E02196281739073CF48E810E94870076
:100C7000EFCF88E090E0F5CF8BE39DE00197F1F7AF
:100C800060E0809180020E94DE0160E0809182023B
:100C90000E94DE01809181028F3F19F060E00E9486
:100CA000DE0160918B0264FD45C063E08CE792E059
:100CB0000E942603CBE4D6E4CE010197F1F763E06E
:100CC0008CE792E00E9426032197F1F763E08CE71E
:100CD00092E00E94260383E592E00197F1F762E03B
:100CE0008CE792E00E94260360918B02606240E0F4
:100CF0008CE792E00E94530384E080938C0240E0F2
:100D00006CE08CE792E00E94530340E061E08CE7E6
:100D100092E00E9453038BE39FE10197F1F782E099
:100D200080938D0240E066E08CE792E0DF91CF9106
:100D30000C945303606240E08CE792E00E945303FE
:100D40008BE496E40197F1F760918B02606240E0DA
:100D50008CE792E00E94530383E592E00197F1F75C
:100D600060918B02606240E08CE792E00E94530346
:100D7000BBCF789484B5826084BD84B5816084BD26
:100D800085B5826085BD85B5816085BD80916E0029
:100D9000816080936E00109281008091810082605A
:100DA0008093810080918100816080938100809197
:100DB00080008160809380008091B1008460809386
:100DC000B1008091B00081608093B00080917A0082
:100DD000846080937A0080917A00826080937A00A8
:100DE00080917A00816080937A0080917A00806897
:100DF00080937A001092C1001092D0011092CF011E
:100E00001092CE011092CD010E94510286EA90E02C
:100E10009093CC018093CB0187EA90E09093CA0134
:100E20008093C90184E18093BA008CEA93E09093A7
:100E3000D2018093D101E091E301F091E40182E0DD
:100E40008083E091DF01F091E0011082E091E10107
:100E5000F091E2018FEC80831092EB01E091E701C9
:100E6000F091E80186E08083E091E501F091E601F0
:100E7000808180618083E091E501F091E6018081CD
:100E800088608083E091E501F091E60180818068CF
:100E90008083E091E501F091E60180818F7D808380
:100EA000C0E0D0E02097F1F30E943B018823D1F30A
:100EB0000E940000F7CFEE0FFF1F0590F491E02D88
:100EC0000994F894FFCF000000007101D100FE00EA
:100ED000BE012F010D01210100000000A4029902B2
:100EE000B6026F0292027F02700200000000A603A9
:060EF000D100B602B502BC
:107E0000112484B714BE81FFF0D085E080938100F7
:107E100082E08093C00088E18093C10086E0809377
:107E2000C20080E18093C4008EE0C9D0259A86E02C
:107E300020E33CEF91E0309385002093840096BBD3
:107E4000B09BFECF1D9AA8958150A9F7CC24DD24C4
:107E500088248394B5E0AB2EA1E19A2EF3E0BF2EE7
:107E6000A2D0813461F49FD0082FAFD0023811F036
:107E7000013811F484E001C083E08DD089C08234E0
:107E800011F484E103C0853419F485E0A6D080C0E4
:107E9000853579F488D0E82EFF2485D0082F10E0AE
:107EA000102F00270E291F29000F111F8ED06801E7
:107EB0006FC0863521F484E090D080E0DECF843638
:107EC00009F040C070D06FD0082F6DD080E0C81688
:107ED00080E7D80618F4F601B7BEE895C0E0D1E017
:107EE00062D089930C17E1F7F0E0CF16F0E7DF06D8
:107EF00018F0F601B7BEE89568D007B600FCFDCFD4
:107F0000A601A0E0B1E02C9130E011968C91119780
:107F100090E0982F8827822B932B1296FA010C0160
:107F200087BEE89511244E5F5F4FF1E0A038BF0790
:107F300051F7F601A7BEE89507B600FCFDCF97BE46
:107F4000E89526C08437B1F42ED02DD0F82E2BD052
:107F50003CD0F601EF2C8F010F5F1F4F84911BD097
:107F6000EA94F801C1F70894C11CD11CFA94CF0C13
:107F7000D11C0EC0853739F428D08EE10CD085E9AC
:107F80000AD08FE07ACF813511F488E018D01DD067
:107F900080E101D065CF982F8091C00085FFFCCF94
:107FA0009093C60008958091C00087FFFCCF809118
:107FB000C00084FD01C0A8958091C6000895E0E648
:107FC000F0E098E1908380830895EDDF803219F02E
:107FD00088E0F5DFFFCF84E1DECF1F93182FE3DFCA
:107FE0001150E9F7F2DF1F91089580E0E8DFEE27F6
:047FF000FF270994CA
:027FFE00040479
:00000001FF
