:100000000C945D000C9485000C9485000C94850084
:100010000C9485000C9485000C9485000C9485004C
:100020000C9485000C9485000C9485000C9485003C
:100030000C9485000C9485000C9485000C9485002C
:100040000C94E5050C9485000C94B3050C948D0577
:100050000C9485000C9485000C9485000C9485000C
:100060000C942F060C94850000000008000201008B
:100070000003040700000000000000000000000072
:10008000250028002B0000000000240027002A0083
:10009000040404040404040402020202020203032E
:1000A0000303030301020408102040800102040836
:1000B00010200102040810204E0711241FBECFEFAC
:1000C000D8E0DEBFCDBF11E0A0E0B1E0E0E2F1E1B9
:1000D00002C005900D92A436B107D9F722E0A4E63C
:1000E000B1E001C01D92AA3CB207E1F710E0CDE5F6
:1000F000D0E004C02197FE010E948808CC35D107CA
:10010000C9F70E94A4070C948E080C94000090E09C
:10011000FC01EC55FF4F249180579F4FFC018491C7
:10012000882399F090E0880F991FFC01EA57FF4F50
:10013000A591B491FC01E458FF4F859194918FB73C
:10014000F894EC91E22BEC938FBF08950895CF9330
:10015000DF93AC01E0910702F09108023097F1F0D3
:1001600090910602809105029817C0F090E0292F27
:1001700030E02617370754F4D901AA59BE4F240F8F
:10018000351FE90128812C939F5FF1CF1092060261
:1001900060930502CB01DF91CF910994DF91CF915C
:1001A0000895AF92BF92CF92DF92EF92FF920F939A
:1001B0001F93CF93DF936C017B018B01040F151FFD
:1001C000EB015E01AE18BF08C017D10759F0699165
:1001D000D601ED91FC910190F081E02DC6010995C9
:1001E000892B79F7C501DF91CF911F910F91FF9076
:1001F000EF90DF90CF90BF90AF900895FC01538DAA
:10020000448D252F30E0842F90E0821B930B5417F0
:1002100010F0CF96089501970895FC01918D828D7D
:10022000981761F0A28DAE0FBF2FB11D5D968C9116
:10023000928D9F5F9F73928F90E008958FEF9FEF55
:100240000895FC01918D828D981731F0828DE80F11
:10025000F11D858D90E008958FEF9FEF0895FC01CB
:10026000918D228D892F90E0805C9F4F821B910998
:100270008F739927089589E092E00E942F0121E071
:10028000892B09F420E0822F089580E090E0892BEB
:1002900029F00E943B0181110C9400000895FC019B
:1002A000A48DA80FB92FB11DA35ABF4F2C91848DD7
:1002B00090E001968F739927848FA689B7892C9334
:1002C000A089B1898C91837080648C93938D848D87
:1002D000981306C00288F389E02D80818F7D80838A
:1002E0000895EF92FF920F931F93CF93DF93EC014A
:1002F00081E0888F9B8D8C8D98131AC0E889F989CD
:10030000808185FF15C09FB7F894EE89FF896083CF
:10031000E889F98980818370806480839FBF81E050
:1003200090E0DF91CF911F910F91FF90EF90089592
:10033000F62E0B8D10E00F5F1F4F0F731127E02E6D
:100340008C8D8E110CC00FB607FCFACFE889F989A5
:10035000808185FFF5CFCE010E944F01F1CFEB8D5B
:10036000EC0FFD2FF11DE35AFF4FF0829FB7F89479
:100370000B8FEA89FB8980818062CFCFCF93DF9397
:10038000EC01888D8823B9F0AA89BB89E889F989AD
:100390008C9185FD03C0808186FD0DC00FB607FCE2
:1003A000F7CF8C9185FFF2CF808185FFEDCFCE0115
:1003B0000E944F01E9CFDF91CF91089590E0FC01B9
:1003C000E859FF4F2491FC01EC55FF4F3491FC019B
:1003D000E057FF4FE491EE23C9F0222339F0233098
:1003E00001F1A8F4213019F1223029F1F0E0EE0FEB
:1003F000FF1FE458FF4FA591B4918FB7F894EC918B
:10040000611126C030953E233C938FBF089527305D
:10041000A9F02830C9F0243049F7809180008F7D01
:1004200003C0809180008F7780938000DFCF84B5F8
:100430008F7784BDDBCF84B58F7DFBCF8091B000FB
:100440008F778093B000D2CF8091B0008F7DF9CFAD
:100450003E2BDACF2091AC01260F3327331F2132F8
:100460003105ECF42091D001FC0190E080E02430D3
:1004700069F082E00895A091AC012191AC0144574C
:100480005E4FA40FB52FB11D2C930196861798F3DC
:100490008091AC01680F6093AC0180E0089581E029
:1004A00008951092D00181E08093D2011092D10181
:1004B00061E082E10E94DE0161E083E10E94DE01F1
:1004C000E9EBF0E080818E7F808380818D7F808367
:1004D00088E48093B80085E48093BC000895089573
:1004E000E091060280910502E81730F4F0E0EA5945
:1004F000FE4F808190E008958FEF9FEF08959091D7
:100500000602809105022FEF3FEF981748F4E92F7C
:10051000F0E0EA59FE4F208130E09F5F90930602A1
:10052000C90108958091050290910602891B990BDB
:100530000895CF93DF93CB01EA01642F0E942A0232
:10054000CE01DF91CF910895CF93DF931F92CDB766
:10055000DEB7698361E0CE0101960E942A0281E044
:1005600090E00F90DF91CF910895089590E080E0A2
:1005700008958F929F92AF92BF920F931F93CF9344
:10058000DF93CDB7DEB7A1970FB6F894DEBF0FBEED
:10059000CDBF19A2423008F44AE08E010F5D1F4F13
:1005A000842E912CB12CA12CA50194010E946608E7
:1005B000E62FB901CA01EA3044F5E05DD801EE93B7
:1005C0008D01232B242B252B79F790E080E01097C9
:1005D00069F0FD0101900020E9F73197AF014A1B56
:1005E0005B0BBD0182EB92E00E94D100A1960FB699
:1005F000F894DEBF0FBECDBFDF91CF911F910F9159
:10060000BF90AF909F908F900895E95CD7CFFC0189
:1006100001900020E9F73197AF01481B590BBC014D
:1006200082EB92E00C94D100CF93DF93EC0160E079
:100630008E810E94DE0161E08E810E94DE0160E019
:100640008E810E94DE018BE891E00197F1F7DF9146
:10065000CF910895CF92DF92EF92FF920F931F9365
:10066000CF93DF936C017C0187E0E80EF11CD0E0B2
:10067000C0E0062F10E0B8010C2E02C075956795FA
:100680000A94E2F76170F70181917F010E94DE0117
:100690002196C430D10579F7C601DF91CF911F9122
:1006A0000F91FF90EF90DF90CF900C941403CF92B6
:1006B000DF92EF92FF920F931F93CF93DF93EC01A2
:1006C000F62E642F8C810E94DE018D818F3F19F000
:1006D00060E00E94DE010F2D10E08F8584FF25C0B1
:1006E0006E0187E0C80ED11CF12CE12CB8010E2C54
:1006F00002C0759567950A94E2F76170F6018191E1
:100700006F010E94DE01FFEFEF1AFF0A88E0E81692
:10071000F10461F7CE01DF91CF911F910F91FF900E
:10072000EF90DF90CF900C941403B80184E075959E
:1007300067958A95E1F7CE010E942A036F2DCE01BD
:10074000DF91CF911F910F91FF90EF90DF90CF90AD
:100750000C942A0340E0682F82EB92E00C9457033C
:1007600081E00E94AA038BE39FE10197F1F70895CE
:10077000CF93DF93823029F49091C10298609093D7
:10078000C1028093C5021092C60280E48093C70222
:1007900080E18093C80280E58093C9028091B6020F
:1007A0000E9487008091B7028F3F11F00E9487005E
:1007B0008091B8020E948700C2EBD2E09E01225BCA
:1007C00032408091C10284FD0AC084E090E021960D
:1007D000281739073CF48E810E948700EFCF88E00C
:1007E00090E0F5CF8BE39DE00197F1F760E0809119
:1007F000B6020E94DE0160E08091B8020E94DE0134
:100800008091B7028F3F19F060E00E94DE01809175
:10081000C10284FD34C063E082EB92E00E942A03AF
:10082000CBE4D6E4CE010197F1F763E082EB92E0EE
:100830000E942A032197F1F763E082EB92E00E9485
:100840002A0383E592E00197F1F762E082EB92E000
:100850000E942A038091C10280620E94AA0384E060
:100860008093C2028CE00E94AA030E94B00382E03F
:100870008093C30286E0DF91CF910C94AA0380623B
:100880000E94AA038BE496E40197F1F78091C102DC
:1008900080620E94AA0383E592E00197F1F78091BC
:1008A000C10280620E94AA03D5CF9091C502691748
:1008B00010F06FEF690FE62FF0E0EE54FD4F9489D2
:1008C000890F80680C94AA0341E00E94570381E0DD
:1008D00090E00895CF92DF92EF92FF926C01990F12
:1008E000EE08FF08F7FE16C041E06DE282EB92E0F1
:1008F0000E94570366277727CB016C197D098E0963
:100900009F094AE00E94B9020196FF90EF90DF90A4
:10091000CF9008954AE0C701B601FF90EF90DF90B5
:10092000CF900C94B9020F931F93CF93DF938C0158
:10093000101611060CF095C086EA92E00E947F0224
:10094000EC018331910548F50E94B00360E080E03E
:100950000E94550488E391E00E940703CE010E94A3
:100960006A0461E082EB92E00E9464048FE391E00C
:100970000E94070361E080E00E94550481E491E059
:100980000E94070360E087E00E94DE0160E086E0ED
:100990000E94DE0101501109CBCF883C9105A4F0E3
:1009A000DA95D0936501C09364010E94B00360E0C2
:1009B00080E00E94550488E391E00E940703809143
:1009C000640190916501CBCF4397069700F50E9493
:1009D000B00360E080E00E94550488E391E00E944B
:1009E0000703CE010E946A0461E082EB92E00E945C
:1009F00064048FE391E00E94070361E080E00E94BD
:100A000055048AE491E00E94070361E0BCCFCE0167
:100A100049978F3A910508F0BDCF0E94B00360E07E
:100A200080E00E94550488E391E00E940703CE0114
:100A30000E946A0461E082EB92E00E9464048FE30A
:100A400091E00E94070361E080E00E94550483E585
:100A500091E00E94070361E087E00E94DE0161E00F
:100A600096CFDF91CF911F910F910895CF93DF9390
:100A700085ED8093BC008091880190918901A091BF
:100A80008A01B0918B010796A11DB11D23E0B69597
:100A9000A795979587952A95D1F72091BC0024FDBD
:100AA00003C01092D00136C0409188015091890155
:100AB00060918A0170918B01452B462B472B69F37E
:100AC0000097A105B10541F025E32A95F1F7000053
:100AD0000197A109B109E1CF8091870191E090933D
:100AE00086018823B9F0C091B800D091BA008091F6
:100AF000BC008A7B8093BC0060E082E10E94DE0142
:100B000060E083E10E94DE010E945102D093BA00AE
:100B1000C093B800DF91CF9108951F920F920FB646
:100B20000F9211242F933F934F935F936F937F9373
:100B30008F939F93AF93BF93EF93FF9389E092E0DE
:100B40000E944F01FF91EF91BF91AF919F918F91C3
:100B50007F916F915F914F913F912F910F900FBEB9
:100B60000F901F9018951F920F920FB60F9211249D
:100B70002F938F939F93EF93FF93E0911902F0913E
:100B80001A028081E0911F02F091200282FD1BC0B9
:100B90009081809122028F5F8F73209123028217B0
:100BA00041F0E0912202F0E0E75FFD4F958F8093E6
:100BB0002202FF91EF919F918F912F910F900FBE85
:100BC0000F901F9018958081F4CF1F920F920FB64F
:100BD0000F9211242F933F938F939F93AF93BF93C3
:100BE0008091FB019091FC01A091FD01B091FE016B
:100BF0003091FA0123E0230F2D3758F50196A11DFE
:100C0000B11D2093FA018093FB019093FC01A09306
:100C1000FD01B093FE018091F6019091F701A09142
:100C2000F801B091F9010196A11DB11D8093F60163
:100C30009093F701A093F801B093F901BF91AF91A0
:100C40009F918F913F912F910F900FBE0F901F900A
:100C5000189526E8230F0296A11DB11DD2CF1F9231
:100C60000F920FB60F9211242F933F934F935F93E0
:100C70006F937F938F939F93AF93BF93EF93FF9364
:100C80008091B900887F803609F44AC0F0F5883237
:100C900009F4A7C018F5803109F49BC0B8F4882383
:100CA00009F4F9C0883009F494C0FF91EF91BF9125
:100CB000AF919F918F917F916F915F914F913F91F4
:100CC0002F910F900FBE0F901F901895883109F447
:100CD00088C0803251F78093CF0114C0803409F46A
:100CE0009DC040F48033B9F38833F9F68093CF0187
:100CF00085ECB0C0803509F485C0883509F496C00C
:100D0000883499F60E943605D0CF883909F48CC012
:100D100038F5883729F050F4883611F0803729F6F5
:100D200083E08093D0011092CE0157C0883809F437
:100D30007BC0803919F0803809F0B7CF8091CE019F
:100D4000803208F071C0E091CE0181E08E0F809377
:100D5000CE018091BB00F0E0E255FE4F80833DC0A4
:100D6000803B39F0E0F4803A09F479C0883A09F020
:100D70009CCF84E08093D0011092AD011092AC0121
:100D8000E0910102F091020209958091AC0181117C
:100D90000FC081E08093AC0110928C0109C0803CAF
:100DA00009F4A6CF883C09F4A3CF883B09F07DCF96
:100DB000E091AD0181E08E0F8093AD01F0E0E4574A
:100DC000FE4F80818093BB009091AD018091AC017A
:100DD00029C08091F5018093BB0085EC8093BC0015
:100DE00064CF9091F4018091F301981758F5E09148
:100DF000F40181E08E0F8093F401F0E0ED52FE4F9C
:100E00008081E9CFE091F40181E08E0F8093F401BD
:100E10008091BB00F0E0ED52FE4F80839091F40191
:100E20008091F3019817C8F285E8D8CFE091F401DA
:100E300081E08E0F8093F4018091BB00F0E0ED52D1
:100E4000FE4F80838091D20181115CCF81E080933D
:100E5000D10184EA8093BC001092D00126CF85ECAA
:100E60008093BC001092D0018091CE01803230F48A
:100E7000E091CE01F0E0E255FE4F10826091CE018C
:100E800070E0E091FF01F09100028EEA91E0099597
:100E90001092CE010ACF1092CF0134CFE9E0F2E0F8
:100EA0001382128288EE93E0A0E0B0E08483958301
:100EB000A683B7832CE031E03183208325EC30E03A
:100EC0003587248724EC30E03787268720EC30E014
:100ED000318B208B21EC30E0338B228B22EC30E005
:100EE000358B248B26EC30E0378B268B118E128EBF
:100EF000138E148EE6EAF2E01382128284839583C5
:100F0000A683B7838EE191E091838083E2EBF2E0E8
:100F10001382128280E391E0918380838DE0848349
:100F20008FEF85838CE086838BE087838AE08087E0
:100F300089E0818788E08287138614861586168665
:100F4000178681E00C94B803789484B5826084BDE0
:100F500084B5816084BD85B5826085BD85B58160BD
:100F600085BD80916E00816080936E00109281003B
:100F700080918100826080938100809181008160F6
:100F800080938100809180008160809380008091B7
:100F9000B10084608093B1008091B0008160809343
:100FA000B00080917A00846080937A0080917A000A
:100FB000826080937A0080917A00816080937A00C9
:100FC00080917A00806880937A001092C10087E057
:100FD0000E94870086E00E94870082E00E94B8039A
:100FE00060E084E00E9455048CE591E00E940703D4
:100FF00088E40E94AA03C0E0D1E008E011E0699112
:1010000082EB92E00E9464040C171D07C1F7E09187
:101010001902F0911A0282E08083E0911502F091AA
:1010200016021082E0911702F09118028FEC808373
:1010300010922102E0911D02F0911E0286E0808351
:10104000E0911B02F0911C02808180618083E0911D
:101050001B02F0911C02808188608083E0911B025A
:10106000F0911C02808180688083E0911B02F091E6
:101070001C0280818F7D80831092060210920502EF
:1010800010920402109203020E94510286EA90E03C
:10109000909302028093010287EA90E0909300020D
:1010A0008093FF0184E18093BA0083E994E09093F8
:1010B000080280930702C0E0D0E02097F1F30E947D
:1010C0003B018823D1F30E940000F7CFA1E21A2E42
:1010D000AA1BBB1BFD010DC0AA1FBB1FEE1FFF1FDC
:1010E000A217B307E407F50720F0A21BB30BE40B2C
:1010F000F50B661F771F881F991F1A9469F7609573
:101100007095809590959B01AC01BD01CF0108952C
:10111000EE0FFF1F0590F491E02D0994F894FFCF96
:101120000C120C0000000000000000007101D10052
:10113000FE00BE012F010D01210100000000A402EC
:101140009902B6026F0292027F0270020000000054
:101150006404D100B602B50254454D503A20004314
:10116000004E6976656C3A2031004E6976656C3ABE
:101170002032004E6976656C3A2033004150414779
:0411800041444F0097
:00000001FF
