:020000040000FA
:100000000C945D000C9485000C9485000C94850084
:100010000C9485000C9485000C9485000C9485004C
:100020000C9485000C9485000C9485000C9485003C
:100030000C9485000C9485000C9485000C9485002C
:100040000C94CB050C9485000C9499050C947305C5
:100050000C9485000C9485000C9485000C9485000C
:100060000C9415060C9485000000000800020100A5
:100070000003040700000000000000000000000072
:10008000250028002B0000000000240027002A0083
:10009000040404040404040402020202020203032E
:1000A0000303030301020408102040800102040836
:1000B0001020010204081020340711241FBECFEFC6
:1000C000D8E0DEBFCDBF11E0A0E0B1E0ECEEF0E1A2
:1000D00002C005900D92A436B107D9F722E0A4E63C
:1000E000B1E001C01D92A83CB207E1F710E0CDE5F8
:1000F000D0E004C02197FE010E946E08CC35D107E4
:10010000C9F70E948A070C9474080C94000090E0D0
:10011000FC01EC55FF4F249180579F4FFC018491C7
:10012000882399F090E0880F991FFC01EA57FF4F50
:10013000A591B491FC01E458FF4F859194918FB73C
:10014000F894EC91E22BEC938FBF08950895CF9330
:10015000DF93AC01E0910502F09106023097F1F0D7
:1001600090910402809103029817C0F090E0292F2B
:1001700030E02617370754F4D901AC59BE4F240F8D
:10018000351FE90128812C939F5FF1CF1092040263
:1001900060930302CB01DF91CF910994DF91CF915E
:1001A0000895AF92BF92CF92DF92EF92FF920F939A
:1001B0001F93CF93DF936C017B018B01040F151FFD
:1001C000EB015E01AE18BF08C017D10759F0699165
:1001D000D601ED91FC910190F081E02DC6010995C9
:1001E000892B79F7C501DF91CF911F910F91FF9076
:1001F000EF90DF90CF90BF90AF900895FC01538DAA
:10020000448D252F30E0842F90E0821B930B5417F0
:1002100010F0CF96089501970895FC01918D828D7D
:10022000981761F0A28DAE0FBF2FB11D5D968C9116
:10023000928D9F5F9F73928F90E008958FEF9FEF55
:100240000895FC01918D828D981731F0828DE80F11
:10025000F11D858D90E008958FEF9FEF0895FC01CB
:10026000918D228D892F90E0805C9F4F821B910998
:100270008F739927089587E092E00E942F0121E073
:10028000892B09F420E0822F089580E090E0892BEB
:1002900029F00E943B0181110C9400000895FC019B
:1002A000A48DA80FB92FB11DA35ABF4F2C91848DD7
:1002B00090E001968F739927848FA689B7892C9334
:1002C000A089B1898C91837080648C93938D848D87
:1002D000981306C00288F389E02D80818F7D80838A
:1002E0000895EF92FF920F931F93CF93DF93EC014A
:1002F00081E0888F9B8D8C8D98131AC0E889F989CD
:10030000808185FF15C09FB7F894EE89FF896083CF
:10031000E889F98980818370806480839FBF81E050
:1003200090E0DF91CF911F910F91FF90EF90089592
:10033000F62E0B8D10E00F5F1F4F0F731127E02E6D
:100340008C8D8E110CC00FB607FCFACFE889F989A5
:10035000808185FFF5CFCE010E944F01F1CFEB8D5B
:10036000EC0FFD2FF11DE35AFF4FF0829FB7F89479
:100370000B8FEA89FB8980818062CFCFCF93DF9397
:10038000EC01888D8823B9F0AA89BB89E889F989AD
:100390008C9185FD03C0808186FD0DC00FB607FCE2
:1003A000F7CF8C9185FFF2CF808185FFEDCFCE0115
:1003B0000E944F01E9CFDF91CF91089590E0FC01B9
:1003C000E859FF4F2491FC01EC55FF4F3491FC019B
:1003D000E057FF4FE491EE23C9F0222339F0233098
:1003E00001F1A8F4213019F1223029F1F0E0EE0FEB
:1003F000FF1FE458FF4FA591B4918FB7F894EC918B
:10040000611126C030953E233C938FBF089527305D
:10041000A9F02830C9F0243049F7809180008F7D01
:1004200003C0809180008F7780938000DFCF84B5F8
:100430008F7784BDDBCF84B58F7DFBCF8091B000FB
:100440008F778093B000D2CF8091B0008F7DF9CFAD
:100450003E2BDACF2091AA01260F3327331F2132FA
:100460003105ECF42091CE01FC0190E080E02430D5
:1004700069F082E00895A091AA012191AC0146574C
:100480005E4FA40FB52FB11D2C930196861798F3DC
:100490008091AA01680F6093AA0180E0089581E02D
:1004A00008951092CE0181E08093D0011092CF0187
:1004B00061E082E10E94DE0161E083E10E94DE01F1
:1004C000E9EBF0E080818E7F808380818D7F808367
:1004D00088E48093B80085E48093BC000895089573
:1004E000E091040280910302E81730F4F0E0EC5947
:1004F000FE4F808190E008958FEF9FEF08959091D7
:100500000402809103022FEF3FEF981748F4E92F80
:10051000F0E0EC59FE4F208130E09F5F90930402A1
:10052000C90108958091030290910402891B990BDF
:100530000895CF93DF93CB01EA01642F0E942A0232
:10054000CE01DF91CF910895CF93DF931F92CDB766
:10055000DEB7698361E0CE0101960E942A0281E044
:1005600090E00F90DF91CF910895089590E080E0A2
:1005700008958F929F92AF92BF920F931F93CF9344
:10058000DF93CDB7DEB7A1970FB6F894DEBF0FBEED
:10059000CDBF19A2423008F44AE08E010F5D1F4F13
:1005A000842E912CB12CA12CA50194010E944C0801
:1005B000E62FB901CA01EA3044F5E05DD801EE93B7
:1005C0008D01232B242B252B79F790E080E01097C9
:1005D00069F0FD0101900020E9F73197AF014A1B56
:1005E0005B0BBD0180EB92E00E94D100A1960FB69B
:1005F000F894DEBF0FBECDBFDF91CF911F910F9159
:10060000BF90AF909F908F900895E95CD7CFFC0189
:1006100001900020E9F73197AF01481B590BBC014D
:1006200080EB92E00C94D100CF93DF93EC0160E07B
:100630008E810E94DE0161E08E810E94DE0160E019
:100640008E810E94DE018BE891E00197F1F7DF9146
:10065000CF910895CF92DF92EF92FF920F931F9365
:10066000CF93DF936C017C0187E0E80EF11CD0E0B2
:10067000C0E0062F10E0B8010C2E02C075956795FA
:100680000A94E2F76170F70181917F010E94DE0117
:100690002196C430D10579F7C601DF91CF911F9122
:1006A0000F91FF90EF90DF90CF900C941403CF92B6
:1006B000DF92EF92FF920F931F93CF93DF93EC01A2
:1006C000F62E642F8C810E94DE018D818F3F19F000
:1006D00060E00E94DE010F2D10E08F8584FF25C0B1
:1006E0006E0187E0C80ED11CF12CE12CB8010E2C54
:1006F00002C0759567950A94E2F76170F6018191E1
:100700006F010E94DE01FFEFEF1AFF0A88E0E81692
:10071000F10461F7CE01DF91CF911F910F91FF900E
:10072000EF90DF90CF900C941403B80184E075959E
:1007300067958A95E1F7CE010E942A036F2DCE01BD
:10074000DF91CF911F910F91FF90EF90DF90CF90AD
:100750000C942A0340E0682F80EB92E00C9457033E
:1007600081E00E94AA038BE39FE10197F1F70895CE
:10077000CF93DF93823029F49091BF0298609093D9
:10078000BF028093C3021092C40280E48093C5022A
:1007900080E18093C60280E58093C7028091B40215
:1007A0000E9487008091B5028F3F11F00E94870060
:1007B0008091B6020E948700C0EBD2E09E01205BD0
:1007C00032408091BF0284FD0AC084E090E021960F
:1007D000281739073CF48E810E948700EFCF88E00C
:1007E00090E0F5CF8BE39DE00197F1F760E0809119
:1007F000B4020E94DE0160E08091B6020E94DE0138
:100800008091B5028F3F19F060E00E94DE01809177
:10081000BF0284FD34C063E080EB92E00E942A03B3
:10082000CBE4D6E4CE010197F1F763E080EB92E0F0
:100830000E942A032197F1F763E080EB92E00E9487
:100840002A0383E592E00197F1F762E080EB92E002
:100850000E942A038091BF0280620E94AA0384E062
:100860008093C0028CE00E94AA030E94B00382E041
:100870008093C10286E0DF91CF910C94AA0380623D
:100880000E94AA038BE496E40197F1F78091BF02DE
:1008900080620E94AA0383E592E00197F1F78091BC
:1008A000BF0280620E94AA03D5CF9091C30269174C
:1008B00010F06FEF690FE62FF0E0E055FD4F9489DF
:1008C000890F80680C94AA0341E00E94570381E0DD
:1008D00090E00895CF92DF92EF92FF926C01990F12
:1008E000EE08FF08F7FE16C041E06DE280EB92E0F3
:1008F0000E94570366277727CB016C197D098E0963
:100900009F094AE00E94B9020196FF90EF90DF90A4
:10091000CF9008954AE0C701B601FF90EF90DF90B5
:10092000CF900C94B9020F931F93CF93DF938C0158
:10093000101611060CF07BC084EA92E00E947F0240
:10094000EC01833191054CF50E94B00360E080E03A
:100950000E94550488E391E00E940703CE010E94A3
:100960006A0461E080EB92E00E9464048FE391E00E
:100970000E94070361E080E00E94550481E491E059
:100980000E94070360E087E00E94DE0160E086E0ED
:100990000E94DE0101501109CBCF4397069700F565
:1009A0000E94B00360E080E00E94550488E391E07B
:1009B0000E940703CE010E946A0461E080EB92E08E
:1009C0000E9464048FE391E00E94070361E080E0ED
:1009D0000E9455048AE491E00E94070361E0D3CFAE
:1009E000CB34D105B9F20E94B00360E080E00E94F0
:1009F000550488E391E00E940703CE010E946A0437
:100A000061E080EB92E00E9464048FE391E00E9439
:100A1000070361E080E00E94550483E591E00E94B5
:100A2000070361E087E00E94DE0161E0B0CFDF9163
:100A3000CF911F910F910895CF93DF9385ED809310
:100A4000BC008091860190918701A0918801B091AE
:100A500089010796A11DB11D23E0B695A79597952D
:100A600087952A95D1F72091BC0024FD03C01092F0
:100A7000CE0136C040918601509187016091880176
:100A800070918901452B462B472B69F30097A105EF
:100A9000B10541F025E32A95F1F700000197A1097E
:100AA000B109E1CF8091850191E090938401882381
:100AB000B9F0C091B800D091BA008091BC008A7B97
:100AC0008093BC0060E082E10E94DE0160E083E18F
:100AD0000E94DE010E945102D093BA00C093B80078
:100AE000DF91CF9108951F920F920FB60F921124AC
:100AF0002F933F934F935F936F937F938F939F9326
:100B0000AF93BF93EF93FF9387E092E00E944F0172
:100B1000FF91EF91BF91AF919F918F917F916F91D5
:100B20005F914F913F912F910F900FBE0F901F90AB
:100B300018951F920F920FB60F9211242F938F9337
:100B40009F93EF93FF93E0911702F0911802808139
:100B5000E0911D02F0911E0282FD1BC090818091E8
:100B600020028F5F8F7320912102821741F0E09164
:100B70002002F0E0E95FFD4F958F80932002FF9106
:100B8000EF919F918F912F910F900FBE0F901F901B
:100B900018958081F4CF1F920F920FB60F921124F7
:100BA0002F933F938F939F93AF93BF938091F901BE
:100BB0009091FA01A091FB01B091FC013091F801F4
:100BC00023E0230F2D3758F50196A11DB11D209369
:100BD000F8018093F9019093FA01A093FB01B0937F
:100BE000FC018091F4019091F501A091F601B09182
:100BF000F7010196A11DB11D8093F4019093F501B9
:100C0000A093F601B093F701BF91AF919F918F919F
:100C10003F912F910F900FBE0F901F90189526E8CF
:100C2000230F0296A11DB11DD2CF1F920F920FB6B6
:100C30000F9211242F933F934F935F936F937F9362
:100C40008F939F93AF93BF93EF93FF938091B900DE
:100C5000887F803609F44AC0F0F5883209F4A7C0CD
:100C600018F5803109F49BC0B8F4882309F4F9C061
:100C7000883009F494C0FF91EF91BF91AF919F919B
:100C80008F917F916F915F914F913F912F910F9035
:100C90000FBE0F901F901895883109F488C08032DC
:100CA00051F78093CD0114C0803409F49DC040F405
:100CB0008033B9F38833F9F68093CD0185ECB0C069
:100CC000803509F485C0883509F496C0883499F6D2
:100CD0000E941C05D0CF883909F48CC038F58837BC
:100CE00029F050F4883611F0803729F683E080939C
:100CF000CE011092CC0157C0883809F47BC08039EE
:100D000019F0803809F0B7CF8091CC01803208F01B
:100D100071C0E091CC0181E08E0F8093CC01809175
:100D2000BB00F0E0E455FE4F80833DC0803B39F0CE
:100D3000E0F4803A09F479C0883A09F09CCF84E065
:100D40008093CE011092AB011092AA01E091FF01B5
:100D5000F091000209958091AA0181110FC081E0F4
:100D60008093AA0110928A0109C0803C09F4A6CFA1
:100D7000883C09F4A3CF883B09F07DCFE091AB011B
:100D800081E08E0F8093AB01F0E0E657FE4F80814B
:100D90008093BB009091AB018091AA0129C0809102
:100DA000F3018093BB0085EC8093BC0064CF9091ED
:100DB000F2018091F101981758F5E091F20181E07C
:100DC0008E0F8093F201F0E0EF52FE4F8081E9CF69
:100DD000E091F20181E08E0F8093F2018091BB00DF
:100DE000F0E0EF52FE4F80839091F2018091F1018B
:100DF0009817C8F285E8D8CFE091F20181E08E0F14
:100E00008093F2018091BB00F0E0EF52FE4F8083AF
:100E10008091D00181115CCF81E08093CF0184EA81
:100E20008093BC001092CE0126CF85EC8093BC004D
:100E30001092CE018091CC01803230F4E091CC014F
:100E4000F0E0E455FE4F10826091CC0170E0E0913B
:100E5000FD01F091FE018CEA91E009951092CC0120
:100E60000ACF1092CD0134CFE7E0F2E01382128274
:100E700088EE93E0A0E0B0E084839583A683B783F7
:100E80002CE031E03183208325EC30E03587248766
:100E900024EC30E03787268720EC30E0318B208B44
:100EA00021EC30E0338B228B22EC30E0358B248B2D
:100EB00026EC30E0378B268B118E128E138E148E1B
:100EC000E4EAF2E01382128284839583A683B783D7
:100ED0008EE191E091838083E0EBF2E01382128255
:100EE00080E391E0918380838DE084838FEF85831D
:100EF0008CE086838BE087838AE0808789E0818726
:100F000088E082871386148615861686178681E008
:100F10000C94B803789484B5826084BD84B58160F4
:100F200084BD85B5826085BD85B5816085BD8091B4
:100F30006E00816080936E0010928100809181002C
:100F40008260809381008091810081608093810024
:100F5000809180008160809380008091B1008460E6
:100F60008093B1008091B00081608093B000809147
:100F70007A00846080937A0080917A008260809306
:100F80007A0080917A00816080937A0080917A0063
:100F9000806880937A001092C10087E00E948700E9
:100FA00086E00E94870082E00E94B80360E084E04F
:100FB0000E9455048CE591E00E94070388E40E949A
:100FC000AA03C0E0D1E008E011E0699180EB92E073
:100FD0000E9464040C171D07C1F7E0911702F091FD
:100FE000180282E08083E0911302F09114021082D3
:100FF000E0911502F09116028FEC808310921F028F
:10100000E0911B02F0911C0286E08083E0911902BE
:10101000F0911A02808180618083E0911902F09141
:101020001A02808188608083E0911902F0911A028F
:10103000808180688083E0911902F0911A0280819A
:101040008F7D80831092040210920302109202029C
:10105000109201020E94510286EA90E090930002F1
:101060008093FF0187EA90E09093FE018093FD0159
:1010700084E18093BA0083E994E090930602809320
:101080000502C0E0D0E02097F1F30E943B018823E5
:10109000D1F30E940000F7CFA1E21A2EAA1BBB1BBE
:1010A000FD010DC0AA1FBB1FEE1FFF1FA217B30734
:1010B000E407F50720F0A21BB30BE40BF50B661F4A
:1010C000771F881F991F1A9469F76095709580950E
:1010D00090959B01AC01BD01CF010895EE0FFF1F5C
:1010E0000590F491E02D0994F894FFCF0C120C00B8
:1010F00000000000000000007101D100FE00BE01F0
:101100002F010D01210100000000A4029902B60286
:101110006F0292027F027002000000006404D1009E
:10112000B602B50254454D503A200043004E697650
:10113000656C3A2031004E6976656C3A2032004E7B
:101140006976656C3A2033004150414741444F0075
:107E0000112484B714BE81FFF0D085E080938100F7
:107E100082E08093C00088E18093C10086E0809377
:107E2000C20080E18093C4008EE0C9D0259A86E02C
:107E300020E33CEF91E0309385002093840096BBD3
:107E4000B09BFECF1D9AA8958150A9F7CC24DD24C4
:107E500088248394B5E0AB2EA1E19A2EF3E0BF2EE7
:107E6000A2D0813461F49FD0082FAFD0023811F036
:107E7000013811F484E001C083E08DD089C08234E0
:107E800011F484E103C0853419F485E0A6D080C0E4
:107E9000853579F488D0E82EFF2485D0082F10E0AE
:107EA000102F00270E291F29000F111F8ED06801E7
:107EB0006FC0863521F484E090D080E0DECF843638
:107EC00009F040C070D06FD0082F6DD080E0C81688
:107ED00080E7D80618F4F601B7BEE895C0E0D1E017
:107EE00062D089930C17E1F7F0E0CF16F0E7DF06D8
:107EF00018F0F601B7BEE89568D007B600FCFDCFD4
:107F0000A601A0E0B1E02C9130E011968C91119780
:107F100090E0982F8827822B932B1296FA010C0160
:107F200087BEE89511244E5F5F4FF1E0A038BF0790
:107F300051F7F601A7BEE89507B600FCFDCF97BE46
:107F4000E89526C08437B1F42ED02DD0F82E2BD052
:107F50003CD0F601EF2C8F010F5F1F4F84911BD097
:107F6000EA94F801C1F70894C11CD11CFA94CF0C13
:107F7000D11C0EC0853739F428D08EE10CD085E9AC
:107F80000AD08FE07ACF813511F488E018D01DD067
:107F900080E101D065CF982F8091C00085FFFCCF94
:107FA0009093C60008958091C00087FFFCCF809118
:107FB000C00084FD01C0A8958091C6000895E0E648
:107FC000F0E098E1908380830895EDDF803219F02E
:107FD00088E0F5DFFFCF84E1DECF1F93182FE3DFCA
:107FE0001150E9F7F2DF1F91089580E0E8DFEE27F6
:047FF000FF270994CA
:027FFE00040479
:00000001FF
